{
  "contractName": "Signup",
  "abi": [
    {
      "constant": true,
      "inputs": [
        {
          "name": "",
          "type": "address"
        }
      ],
      "name": "details",
      "outputs": [
        {
          "name": "name",
          "type": "string"
        },
        {
          "name": "DOB",
          "type": "string"
        },
        {
          "name": "gender",
          "type": "string"
        },
        {
          "name": "NIC",
          "type": "string"
        },
        {
          "name": "desigination",
          "type": "string"
        },
        {
          "name": "set",
          "type": "bool"
        }
      ],
      "payable": false,
      "stateMutability": "view",
      "type": "function"
    },
    {
      "constant": true,
      "inputs": [],
      "name": "sequence",
      "outputs": [
        {
          "name": "",
          "type": "uint256"
        }
      ],
      "payable": false,
      "stateMutability": "view",
      "type": "function"
    },
    {
      "constant": true,
      "inputs": [],
      "name": "nbPendingTrasanction",
      "outputs": [
        {
          "name": "",
          "type": "uint256"
        }
      ],
      "payable": false,
      "stateMutability": "view",
      "type": "function"
    },
    {
      "constant": true,
      "inputs": [
        {
          "name": "",
          "type": "address"
        }
      ],
      "name": "users",
      "outputs": [
        {
          "name": "username",
          "type": "string"
        },
        {
          "name": "password",
          "type": "string"
        },
        {
          "name": "privateKey",
          "type": "string"
        },
        {
          "name": "set",
          "type": "bool"
        }
      ],
      "payable": false,
      "stateMutability": "view",
      "type": "function"
    },
    {
      "anonymous": false,
      "inputs": [
        {
          "indexed": false,
          "name": "to",
          "type": "address"
        },
        {
          "indexed": false,
          "name": "from",
          "type": "address"
        },
        {
          "indexed": false,
          "name": "state",
          "type": "uint8"
        },
        {
          "indexed": false,
          "name": "date",
          "type": "string"
        }
      ],
      "name": "received_notification",
      "type": "event"
    },
    {
      "constant": false,
      "inputs": [
        {
          "name": "_userAddress",
          "type": "address"
        },
        {
          "name": "userName",
          "type": "string"
        },
        {
          "name": "password",
          "type": "string"
        },
        {
          "name": "_privateKey",
          "type": "string"
        }
      ],
      "name": "createUser",
      "outputs": [],
      "payable": false,
      "stateMutability": "nonpayable",
      "type": "function"
    },
    {
      "constant": false,
      "inputs": [
        {
          "name": "_userAddress",
          "type": "address"
        },
        {
          "name": "name",
          "type": "string"
        },
        {
          "name": "dob",
          "type": "string"
        },
        {
          "name": "gender",
          "type": "string"
        },
        {
          "name": "nic",
          "type": "string"
        },
        {
          "name": "desigination",
          "type": "string"
        }
      ],
      "name": "setUserDetail",
      "outputs": [],
      "payable": false,
      "stateMutability": "nonpayable",
      "type": "function"
    },
    {
      "constant": true,
      "inputs": [
        {
          "name": "_userAddress",
          "type": "address"
        }
      ],
      "name": "getUser",
      "outputs": [
        {
          "name": "",
          "type": "int256"
        }
      ],
      "payable": false,
      "stateMutability": "view",
      "type": "function"
    },
    {
      "constant": true,
      "inputs": [
        {
          "name": "_userAddress",
          "type": "address"
        },
        {
          "name": "username",
          "type": "string"
        },
        {
          "name": "password",
          "type": "string"
        }
      ],
      "name": "login",
      "outputs": [
        {
          "name": "",
          "type": "address"
        }
      ],
      "payable": false,
      "stateMutability": "view",
      "type": "function"
    },
    {
      "constant": true,
      "inputs": [
        {
          "name": "_userAddress",
          "type": "address"
        }
      ],
      "name": "getUserDetails",
      "outputs": [
        {
          "components": [
            {
              "name": "username",
              "type": "string"
            },
            {
              "name": "password",
              "type": "string"
            },
            {
              "name": "privateKey",
              "type": "string"
            },
            {
              "name": "set",
              "type": "bool"
            }
          ],
          "name": "s",
          "type": "tuple"
        },
        {
          "components": [
            {
              "name": "name",
              "type": "string"
            },
            {
              "name": "DOB",
              "type": "string"
            },
            {
              "name": "gender",
              "type": "string"
            },
            {
              "name": "NIC",
              "type": "string"
            },
            {
              "name": "desigination",
              "type": "string"
            },
            {
              "name": "set",
              "type": "bool"
            }
          ],
          "name": "t",
          "type": "tuple"
        }
      ],
      "payable": false,
      "stateMutability": "view",
      "type": "function"
    },
    {
      "constant": true,
      "inputs": [
        {
          "name": "to",
          "type": "address"
        }
      ],
      "name": "getPendingTransactions",
      "outputs": [
        {
          "name": "",
          "type": "address[]"
        }
      ],
      "payable": false,
      "stateMutability": "view",
      "type": "function"
    },
    {
      "constant": true,
      "inputs": [
        {
          "name": "_id",
          "type": "address"
        }
      ],
      "name": "getTransactionDetail",
      "outputs": [
        {
          "name": "",
          "type": "address"
        },
        {
          "name": "",
          "type": "address"
        },
        {
          "name": "",
          "type": "uint8"
        },
        {
          "name": "",
          "type": "string"
        }
      ],
      "payable": false,
      "stateMutability": "view",
      "type": "function"
    },
    {
      "constant": false,
      "inputs": [
        {
          "name": "to",
          "type": "address"
        },
        {
          "name": "from",
          "type": "address"
        }
      ],
      "name": "receiveNotification",
      "outputs": [],
      "payable": false,
      "stateMutability": "nonpayable",
      "type": "function"
    },
    {
      "constant": false,
      "inputs": [
        {
          "name": "_id",
          "type": "address"
        },
        {
          "name": "date",
          "type": "string"
        }
      ],
      "name": "acceptNotification",
      "outputs": [],
      "payable": false,
      "stateMutability": "nonpayable",
      "type": "function"
    },
    {
      "constant": false,
      "inputs": [
        {
          "name": "_id",
          "type": "address"
        },
        {
          "name": "date",
          "type": "string"
        }
      ],
      "name": "rejectNotification",
      "outputs": [],
      "payable": false,
      "stateMutability": "nonpayable",
      "type": "function"
    }
  ],
  "bytecode": "0x608060405260008055600060015534801561001957600080fd5b50611e57806100296000396000f3fe608060405234801561001057600080fd5b50600436106100ea5760003560e01c80639bed6b701161008c578063bb40433b11610066578063bb40433b146101ee578063c610d2ce1461020e578063cc3d967b14610221578063e435ee8c14610242576100ea565b80639bed6b70146101b0578063a87430ba146101b8578063b1fb0107146101db576100ea565b80636f77926b116100c85780636f77926b1461014757806377d5705d1461015a578063793299371461016d578063948af9ac1461018d576100ea565b80631dc7d0a8146100ef57806324a92f9f14610104578063529d15cc14610132575b600080fd5b6101026100fd366004611628565b610255565b005b6101176101123660046115c8565b6102c9565b60405161012996959493929190611c59565b60405180910390f35b61013a6105c3565b6040516101299190611bfa565b61013a6101553660046115c8565b6105c9565b6101026101683660046115ee565b610603565b61018061017b36600461166f565b61071f565b6040516101299190611b97565b6101a061019b3660046115c8565b610802565b6040516101299493929190611ba5565b61013a6108db565b6101cb6101c63660046115c8565b6108e1565b6040516101299493929190611c08565b6101026101e9366004611628565b610abb565b6102016101fc3660046115c8565b610aef565b6040516101299190611be9565b61010261021c3660046116ea565b610cb5565b61023461022f3660046115c8565b610da6565b604051610129929190611cf4565b610102610250366004611790565b611312565b6001600160a01b03821660009081526002602081905260409091206001018054600160a01b60ff021916600160a01b835b02179055506001600160a01b038216600090815260026020818152604090922083516102ba93919092019190840190611440565b50506001805460001901905550565b60046020908152600091825260409182902080548351601f600260001961010060018616150201909316929092049182018490048402810184019094528084529092918391908301828280156103605780601f1061033557610100808354040283529160200191610360565b820191906000526020600020905b81548152906001019060200180831161034357829003601f168201915b505050505090806001018054600181600116156101000203166002900480601f0160208091040260200160405190810160405280929190818152602001828054600181600116156101000203166002900480156103fe5780601f106103d3576101008083540402835291602001916103fe565b820191906000526020600020905b8154815290600101906020018083116103e157829003601f168201915b50505060028085018054604080516020601f60001961010060018716150201909416959095049283018590048502810185019091528181529596959450909250908301828280156104905780601f1061046557610100808354040283529160200191610490565b820191906000526020600020905b81548152906001019060200180831161047357829003601f168201915b5050505060038301805460408051602060026001851615610100026000190190941693909304601f81018490048402820184019092528181529495949350908301828280156105205780601f106104f557610100808354040283529160200191610520565b820191906000526020600020905b81548152906001019060200180831161050357829003601f168201915b5050505060048301805460408051602060026001851615610100026000190190941693909304601f81018490048402820184019092528181529495949350908301828280156105b05780601f10610585576101008083540402835291602001916105b0565b820191906000526020600020905b81548152906001019060200180831161059357829003601f168201915b5050506005909301549192505060ff1686565b60005481565b6001600160a01b038116600090815260036020819052604082209081015460ff166105f85760009150506105fe565b60019150505b919050565b61060b6114be565b6001600160a01b0383811682528281166020808401918252600060408086018281528151808501835283815260608801528651861683526002938490529120855181549086166001600160a01b03199182161782559351600182018054919096169416939093178085559051859490929091600160a01b60ff02191690600160a01b90849081111561069957fe5b0217905550606082015180516106b9916002840191602090910190611440565b50506000805460019081019091558054810190555080516020820151604080840151606085015191517feb145f4454702b7624bb7f0ebaa24390c45660391e4d4ec77cf6dd37ab53fcf194610712949093909291611ba5565b60405180910390a1505050565b6001600160a01b038316600090815260036020908152604080832090516107469201611b8b565b604051602081830303815290604052805190602001208360405160200161076d9190611b7f565b6040516020818303038152906040528051906020012014156107fb576001600160a01b03841660009081526003602090815260409182902091516107b5926001019101611b8b565b60405160208183030381529060405280519060200120826040516020016107dc9190611b7f565b6040516020818303038152906040528051906020012014156107fb5750825b9392505050565b6001600160a01b0381811660009081526002602081815260408084208054600180830154928601805485516101009382161593909302600019011696909604601f81018690048602820186019094528381529596879687966060969383169592851694600160a01b900460ff1693909283918301828280156108c55780601f1061089a576101008083540402835291602001916108c5565b820191906000526020600020905b8154815290600101906020018083116108a857829003601f168201915b5050505050905093509350935093509193509193565b60015481565b60036020908152600091825260409182902080548351601f600260001961010060018616150201909316929092049182018490048402810184019094528084529092918391908301828280156109785780601f1061094d57610100808354040283529160200191610978565b820191906000526020600020905b81548152906001019060200180831161095b57829003601f168201915b505050505090806001018054600181600116156101000203166002900480601f016020809104026020016040519081016040528092919081815260200182805460018160011615610100020316600290048015610a165780601f106109eb57610100808354040283529160200191610a16565b820191906000526020600020905b8154815290600101906020018083116109f957829003601f168201915b50505060028085018054604080516020601f6000196101006001871615020190941695909504928301859004850281018501909152818152959695945090925090830182828015610aa85780601f10610a7d57610100808354040283529160200191610aa8565b820191906000526020600020905b815481529060010190602001808311610a8b57829003601f168201915b5050506003909301549192505060ff1684565b6001600160a01b038216600090815260026020526040902060019081018054600160a01b60ff021916600160a01b83610286565b606060015460001415610b1157506040805160008152602081019091526105fe565b6060600154604051908082528060200260200182016040528015610b3f578160200160208202803883390190505b5090506000805b600054811015610cac57610b586114be565b6001600160a01b03868116600090815260026020818152604092839020835160808101855281548616815260018201549586169281019290925290939092840191600160a01b90910460ff1690811115610bae57fe5b6002811115610bb957fe5b8152600282810180546040805160206001841615610100026000190190931694909404601f81018390048302850183019091528084529381019390830182828015610c455780601f10610c1a57610100808354040283529160200191610c45565b820191906000526020600020905b815481529060010190602001808311610c2857829003601f168201915b505050505081525050905060006002811115610c5d57fe5b81604001516002811115610c6d57fe5b1415610ca3578060200151848481518110610c8457fe5b6001600160a01b03909216602092830291909101909101526001909201915b50600101610b46565b50909392505050565b6001600160a01b03841660009081526003602081905260409091209081015460ff1615610d0057604051600160e51b62461bcd028152600401610cf790611ce4565b60405180910390fd5b604080516080810182528581526020808201869052818301859052600160608301526001600160a01b038816600090815260038252929092208151805192939192610d4e9284920190611440565b506020828101518051610d679260018501920190611440565b5060408201518051610d83916002840191602090910190611440565b50606091909101516003909101805460ff19169115159190911790555050505050565b610dae6114e4565b610db661150e565b6001600160a01b03831660009081526003602090815260409182902080548351601f600260001961010060018616150201909316929092049182018490048402810184019094528084529091830182828015610e535780601f10610e2857610100808354040283529160200191610e53565b820191906000526020600020905b815481529060010190602001808311610e3657829003601f168201915b50505091845250506001600160a01b038316600090815260036020908152604091829020600190810180548451600293821615610100026000190190911692909204601f810184900484028301840190945283825290929091830182828015610efd5780601f10610ed257610100808354040283529160200191610efd565b820191906000526020600020905b815481529060010190602001808311610ee057829003601f168201915b50505050506020838101919091526001600160a01b0384166000908152600382526040908190206002908101805483516001821615610100026000190190911692909204601f81018590048502830185019093528282529092909190830182828015610faa5780601f10610f7f57610100808354040283529160200191610faa565b820191906000526020600020905b815481529060010190602001808311610f8d57829003601f168201915b50505050604080850192909252506001600160a01b0384166000908152600460209081529082902080548351601f6002600019610100600186161502019093169290920491820184900484028101840190945280845290918301828280156110535780601f1061102857610100808354040283529160200191611053565b820191906000526020600020905b81548152906001019060200180831161103657829003601f168201915b50505091835250506001600160a01b038316600090815260046020908152604091829020600190810180548451600293821615610100026000190190911692909204601f8101849004840283018401909452838252909290918301828280156110fd5780601f106110d2576101008083540402835291602001916110fd565b820191906000526020600020905b8154815290600101906020018083116110e057829003601f168201915b50505050506020828101919091526001600160a01b0384166000908152600482526040908190206002908101805483516001821615610100026000190190911692909204601f810185900485028301850190935282825290929091908301828280156111aa5780601f1061117f576101008083540402835291602001916111aa565b820191906000526020600020905b81548152906001019060200180831161118d57829003601f168201915b50505050604080840192909252506001600160a01b0384166000908152600460209081529082902060030180548351601f6002600019610100600186161502019093169290920491820184900484028101840190945280845290918301828280156112565780601f1061122b57610100808354040283529160200191611256565b820191906000526020600020905b81548152906001019060200180831161123957829003601f168201915b505050505060608201526001600160a01b0383166000908152600460208181526040928390209091018054835160026001831615610100026000190190921691909104601f81018490048402820184019094528381529290918301828280156113005780601f106112d557610100808354040283529160200191611300565b820191906000526020600020905b8154815290600101906020018083116112e357829003601f168201915b50505050508160800181905250915091565b6001600160a01b0386166000908152600460205260409020600581015460ff161561135257604051600160e51b62461bcd028152600401610cf790611cd4565b6040805160c08101825287815260208082018890528183018790526060820186905260808201859052600160a08301526001600160a01b038a166000908152600482529290922081518051929391926113ae9284920190611440565b5060208281015180516113c79260018501920190611440565b50604082015180516113e3916002840191602090910190611440565b50606082015180516113ff916003840191602090910190611440565b506080820151805161141b916004840191602090910190611440565b5060a091909101516005909101805460ff191691151591909117905550505050505050565b828054600181600116156101000203166002900490600052602060002090601f016020900481019282601f1061148157805160ff19168380011785556114ae565b828001600101855582156114ae579182015b828111156114ae578251825591602001919060010190611493565b506114ba929150611546565b5090565b604080516080810182526000808252602082018190529181019190915260608082015290565b60405180608001604052806060815260200160608152602001606081526020016000151581525090565b6040518060c0016040528060608152602001606081526020016060815260200160608152602001606081526020016000151581525090565b61156091905b808211156114ba576000815560010161154c565b90565b803561156e81611e09565b92915050565b600082601f83011261158557600080fd5b813561159861159382611d3f565b611d19565b915080825260208301602083018583830111156115b457600080fd5b6115bf838284611db6565b50505092915050565b6000602082840312156115da57600080fd5b60006115e68484611563565b949350505050565b6000806040838503121561160157600080fd5b600061160d8585611563565b925050602061161e85828601611563565b9150509250929050565b6000806040838503121561163b57600080fd5b60006116478585611563565b92505060208301356001600160401b0381111561166357600080fd5b61161e85828601611574565b60008060006060848603121561168457600080fd5b60006116908686611563565b93505060208401356001600160401b038111156116ac57600080fd5b6116b886828701611574565b92505060408401356001600160401b038111156116d457600080fd5b6116e086828701611574565b9150509250925092565b6000806000806080858703121561170057600080fd5b600061170c8787611563565b94505060208501356001600160401b0381111561172857600080fd5b61173487828801611574565b93505060408501356001600160401b0381111561175057600080fd5b61175c87828801611574565b92505060608501356001600160401b0381111561177857600080fd5b61178487828801611574565b91505092959194509250565b60008060008060008060c087890312156117a957600080fd5b60006117b58989611563565b96505060208701356001600160401b038111156117d157600080fd5b6117dd89828a01611574565b95505060408701356001600160401b038111156117f957600080fd5b61180589828a01611574565b94505060608701356001600160401b0381111561182157600080fd5b61182d89828a01611574565b93505060808701356001600160401b0381111561184957600080fd5b61185589828a01611574565b92505060a08701356001600160401b0381111561187157600080fd5b61187d89828a01611574565b9150509295509295509295565b6000611896838361189e565b505060200190565b6118a781611d85565b82525050565b60006118b882611d78565b6118c28185611d7c565b93506118cd83611d66565b8060005b838110156118fb5781516118e5888261188a565b97506118f083611d66565b9250506001016118d1565b509495945050505050565b6118a781611d90565b6118a781611dab565b6118a781611560565b600061192c82611d78565b6119368185611d7c565b9350611946818560208601611dc2565b61194f81611df2565b9093019392505050565b600061196482611d78565b61196e81856105fe565b935061197e818560208601611dc2565b9290920192915050565b6000815460018116600081146119a557600181146119c857611a07565b607f60028304166119b681876105fe565b60ff1984168152955085019250611a07565b600282046119d681876105fe565b95506119e185611d6c565b60005b82811015611a00578154888201526001909101906020016119e4565b5050850192505b505092915050565b6000611a1c601883611d7c565b7f50726f66696c6520697320616c72656164792073617665640000000000000000815260200192915050565b6000611a55601483611d7c565b7f5573657220416c72656164792045787369737473000000000000000000000000815260200192915050565b8051608080845260009190840190611a998282611921565b91505060208301518482036020860152611ab38282611921565b91505060408301518482036040860152611acd8282611921565b9150506060830151611ae26060860182611906565b509392505050565b805160c080845260009190840190611b028282611921565b91505060208301518482036020860152611b1c8282611921565b91505060408301518482036040860152611b368282611921565b91505060608301518482036060860152611b508282611921565b91505060808301518482036080860152611b6a8282611921565b91505060a0830151611ae260a0860182611906565b60006107fb8284611959565b60006107fb8284611988565b6020810161156e828461189e565b60808101611bb3828761189e565b611bc0602083018661189e565b611bcd604083018561190f565b8181036060830152611bdf8184611921565b9695505050505050565b602080825281016107fb81846118ad565b6020810161156e8284611918565b60808082528101611c198187611921565b90508181036020830152611c2d8186611921565b90508181036040830152611c418185611921565b9050611c506060830184611906565b95945050505050565b60c08082528101611c6a8189611921565b90508181036020830152611c7e8188611921565b90508181036040830152611c928187611921565b90508181036060830152611ca68186611921565b90508181036080830152611cba8185611921565b9050611cc960a0830184611906565b979650505050505050565b6020808252810161156e81611a0f565b6020808252810161156e81611a48565b60408082528101611d058185611a81565b905081810360208301526115e68184611aea565b6040518181016001600160401b0381118282101715611d3757600080fd5b604052919050565b60006001600160401b03821115611d5557600080fd5b506020601f91909101601f19160190565b60200190565b60009081526020902090565b5190565b90815260200190565b600061156e82611d9f565b151590565b806105fe81611dfc565b6001600160a01b031690565b600061156e82611d95565b82818337506000910152565b60005b83811015611ddd578181015183820152602001611dc5565b83811115611dec576000848401525b50505050565b601f01601f191690565b60038110611e0657fe5b50565b611e1281611d85565b8114611e0657600080fdfea265627a7a72305820c51f1462ac549fb46461191554dbd6bf5c811b85fbd26180398cb3d8fe987a226c6578706572696d656e74616cf50037",
  "source": "pragma solidity >=0.4.21 <0.6.0;\npragma experimental ABIEncoderV2; \ncontract Signup {\n enum State {\n          PENDING,\n          ACCEPTED,\n          REJECTED\n    }\n\n    struct Transaction {\n        address          to;\n        address         from;\n        State           state;\n        string           date;\n    }\n\n    uint public sequence =0;\n    uint public nbPendingTrasanction = 0;\n    \n    struct User {\n        string username;\n        string  password;\n        string privateKey;\n        bool set;\n    }\n\n    struct userDetails{\n        string name;\n        string DOB;\n        string gender;\n        string NIC;\n        string desigination;\n        bool set;\n    }\n    mapping(address => Transaction) db;\n    mapping(address => User) public users;\n    mapping(address => userDetails) public details;\n\n\n    function createUser(address _userAddress,string memory userName,string memory password,string memory _privateKey) public {\n        User storage user = users[_userAddress];\n        // Check that the user does not already exist:\n        require(!user.set,\"User Already Exsists\");\n        //Store the user\n        users[_userAddress] = User({\n            username: userName,\n            password: password,\n            privateKey: _privateKey,\n            set: true\n        });\n    }\n    function setUserDetail(address _userAddress, string memory name,string memory dob,string memory gender,\n    string memory nic,string memory desigination ) public {\n        userDetails storage detail = details[_userAddress];\n        require(!detail.set,\"Profile is already saved\");\n        //set Details\n        details[_userAddress] = userDetails({\n            name:name,\n            DOB:dob,\n            gender:gender,\n            NIC:nic,\n            desigination:desigination,\n            set:true\n        });\n}\n\n    function getUser(address _userAddress) public view returns (int) {\n        User storage user = users[_userAddress];\n        if (!user.set)\n        {\n            return 0;\n        }\n\n        return 1;\n    }\n    function login(address _userAddress, string memory username, string memory password) public view returns (address){\n       if (keccak256(abi.encodePacked((username))) == keccak256(abi.encodePacked((users[_userAddress].username)))){\n           if( keccak256(abi.encodePacked((password))) == keccak256(abi.encodePacked((users[_userAddress].password)))){\n           return _userAddress;\n           }\n       }\n    }\n\n   function getUserDetails(address _userAddress) public view returns (User memory s, userDetails memory t) {\n           s.username = users[_userAddress].username;\n           s.password = users[_userAddress].password;\n           s.privateKey = users[_userAddress].privateKey;\n\n           t.name = details[_userAddress].name;\n           t.DOB = details[_userAddress].DOB;\n           t.gender = details[_userAddress].gender;\n           t.NIC = details[_userAddress].NIC;\n           t.desigination = details[_userAddress].desigination;\n\n           }\n\n    event received_notification(address to, address from,State state, string date);\n   \n    function getPendingTransactions(address to) public view returns (address[] memory) {\n       if(nbPendingTrasanction == 0) {\n            return new address[](0);\n        }\n     address[] memory policyIDArray = new address[](nbPendingTrasanction);\n        uint index = 0;\n        for(uint id = 0; id < sequence; id++){\n            Transaction memory t = db[to];\n         if(t.state == State.PENDING) {\n                policyIDArray[index] = t.from;\n                index++;\n            }\n        }\n     return (policyIDArray);\n    }\n    function getTransactionDetail(address _id) public view returns (address, address, State, string memory) {\n        return (db[_id].to, db[_id].from, db[_id].state, db[_id].date);\n    }\n    function receiveNotification(address to  ,address from) public {\n        Transaction memory t; \n        t.to = to;\n        t.from = from;\n        t.state = State.PENDING;\n        t.date = '';\n        // Store the transaction\n        db[t.to] = t;\n        // Increment sequence\n        sequence++; \n        // Increment the no of pending transactions\n        nbPendingTrasanction++;\n        // Trigger event\n        emit received_notification(t.to, t.from, t.state, t.date);\n    }\n    function acceptNotification(address _id , string memory date) public {\n         db[_id].state = State.ACCEPTED;\n         db[_id].date = date;\n        // Decrement the no of pending transactions\n        nbPendingTrasanction--;\n    }\n    function rejectNotification(address _id, string memory date)  public {\n       // Change the state to Rejected\n        db[_id].state = State.REJECTED;\n        db[_id].date = date;\n       // Decrement the no of pending transactions\n        nbPendingTrasanction--;\n\n    }\n\n\n}",
  "sourcePath": "/home/trs-laptop-20/Project/Ethereum/IDM-Ethereum-Dapp/smartContracts/contracts/SignUp.sol",
  "compiler": {
    "name": "solc",
    "version": "0.5.8+commit.23d335f2.Emscripten.clang"
  },
  "schemaVersion": "3.0.11",
  "updatedAt": "2019-07-25T12:54:13.787Z",
  "devdoc": {
    "methods": {}
  },
  "userdoc": {
    "methods": {}
  }
}