{
  "contractName": "Signup",
  "abi": [
    {
      "constant": true,
      "inputs": [
        {
          "name": "",
          "type": "address"
        }
      ],
      "name": "details",
      "outputs": [
        {
          "name": "name",
          "type": "string"
        },
        {
          "name": "DOB",
          "type": "string"
        },
        {
          "name": "gender",
          "type": "string"
        },
        {
          "name": "NIC",
          "type": "string"
        },
        {
          "name": "desigination",
          "type": "string"
        },
        {
          "name": "set",
          "type": "bool"
        }
      ],
      "payable": false,
      "stateMutability": "view",
      "type": "function",
      "signature": "0x24a92f9f"
    },
    {
      "constant": true,
      "inputs": [
        {
          "name": "",
          "type": "address"
        }
      ],
      "name": "users",
      "outputs": [
        {
          "name": "username",
          "type": "string"
        },
        {
          "name": "password",
          "type": "string"
        },
        {
          "name": "privateKey",
          "type": "string"
        },
        {
          "name": "set",
          "type": "bool"
        }
      ],
      "payable": false,
      "stateMutability": "view",
      "type": "function",
      "signature": "0xa87430ba"
    },
    {
      "constant": false,
      "inputs": [
        {
          "name": "_userAddress",
          "type": "address"
        },
        {
          "name": "userName",
          "type": "string"
        },
        {
          "name": "password",
          "type": "string"
        },
        {
          "name": "_privateKey",
          "type": "string"
        }
      ],
      "name": "createUser",
      "outputs": [],
      "payable": false,
      "stateMutability": "nonpayable",
      "type": "function",
      "signature": "0xc610d2ce"
    },
    {
      "constant": false,
      "inputs": [
        {
          "name": "_userAddress",
          "type": "address"
        },
        {
          "name": "name",
          "type": "string"
        },
        {
          "name": "dob",
          "type": "string"
        },
        {
          "name": "gender",
          "type": "string"
        },
        {
          "name": "nic",
          "type": "string"
        },
        {
          "name": "desigination",
          "type": "string"
        }
      ],
      "name": "setUserDetail",
      "outputs": [],
      "payable": false,
      "stateMutability": "nonpayable",
      "type": "function",
      "signature": "0xe435ee8c"
    },
    {
      "constant": true,
      "inputs": [
        {
          "name": "_userAddress",
          "type": "address"
        }
      ],
      "name": "getUser",
      "outputs": [
        {
          "name": "",
          "type": "int256"
        }
      ],
      "payable": false,
      "stateMutability": "view",
      "type": "function",
      "signature": "0x6f77926b"
    }
  ],
  "bytecode": "0x608060405234801561001057600080fd5b506111ad806100206000396000f3fe60806040526004361061006c5763ffffffff7c010000000000000000000000000000000000000000000000000000000060003504166324a92f9f81146100715780636f77926b146102bf578063a87430ba14610304578063c610d2ce14610483578063e435ee8c14610656575b600080fd5b34801561007d57600080fd5b506100a46004803603602081101561009457600080fd5b5035600160a060020a0316610935565b6040518080602001806020018060200180602001806020018715151515815260200186810386528c818151815260200191508051906020019080838360005b838110156100fb5781810151838201526020016100e3565b50505050905090810190601f1680156101285780820380516001836020036101000a031916815260200191505b5086810385528b5181528b516020918201918d019080838360005b8381101561015b578181015183820152602001610143565b50505050905090810190601f1680156101885780820380516001836020036101000a031916815260200191505b5086810384528a5181528a516020918201918c019080838360005b838110156101bb5781810151838201526020016101a3565b50505050905090810190601f1680156101e85780820380516001836020036101000a031916815260200191505b5086810383528951815289516020918201918b019080838360005b8381101561021b578181015183820152602001610203565b50505050905090810190601f1680156102485780820380516001836020036101000a031916815260200191505b5086810382528851815288516020918201918a019080838360005b8381101561027b578181015183820152602001610263565b50505050905090810190601f1680156102a85780820380516001836020036101000a031916815260200191505b509b50505050505050505050505060405180910390f35b3480156102cb57600080fd5b506102f2600480360360208110156102e257600080fd5b5035600160a060020a0316610c29565b60408051918252519081900360200190f35b34801561031057600080fd5b506103376004803603602081101561032757600080fd5b5035600160a060020a0316610c64565b604080518215156060820152608080825286519082015285519091829160208084019284019160a08501918a019080838360005b8381101561038357818101518382015260200161036b565b50505050905090810190601f1680156103b05780820380516001836020036101000a031916815260200191505b50848103835287518152875160209182019189019080838360005b838110156103e35781810151838201526020016103cb565b50505050905090810190601f1680156104105780820380516001836020036101000a031916815260200191505b50848103825286518152865160209182019188019080838360005b8381101561044357818101518382015260200161042b565b50505050905090810190601f1680156104705780820380516001836020036101000a031916815260200191505b5097505050505050505060405180910390f35b34801561048f57600080fd5b50610654600480360360808110156104a657600080fd5b600160a060020a0382351691908101906040810160208201356401000000008111156104d157600080fd5b8201836020820111156104e357600080fd5b8035906020019184600183028401116401000000008311171561050557600080fd5b91908080601f016020809104026020016040519081016040528093929190818152602001838380828437600092019190915250929594936020810193503591505064010000000081111561055857600080fd5b82018360208201111561056a57600080fd5b8035906020019184600183028401116401000000008311171561058c57600080fd5b91908080601f01602080910402602001604051908101604052809392919081815260200183838082843760009201919091525092959493602081019350359150506401000000008111156105df57600080fd5b8201836020820111156105f157600080fd5b8035906020019184600183028401116401000000008311171561061357600080fd5b91908080601f016020809104026020016040519081016040528093929190818152602001838380828437600092019190915250929550610e3b945050505050565b005b34801561066257600080fd5b50610654600480360360c081101561067957600080fd5b600160a060020a0382351691908101906040810160208201356401000000008111156106a457600080fd5b8201836020820111156106b657600080fd5b803590602001918460018302840111640100000000831117156106d857600080fd5b91908080601f016020809104026020016040519081016040528093929190818152602001838380828437600092019190915250929594936020810193503591505064010000000081111561072b57600080fd5b82018360208201111561073d57600080fd5b8035906020019184600183028401116401000000008311171561075f57600080fd5b91908080601f01602080910402602001604051908101604052809392919081815260200183838082843760009201919091525092959493602081019350359150506401000000008111156107b257600080fd5b8201836020820111156107c457600080fd5b803590602001918460018302840111640100000000831117156107e657600080fd5b91908080601f016020809104026020016040519081016040528093929190818152602001838380828437600092019190915250929594936020810193503591505064010000000081111561083957600080fd5b82018360208201111561084b57600080fd5b8035906020019184600183028401116401000000008311171561086d57600080fd5b91908080601f01602080910402602001604051908101604052809392919081815260200183838082843760009201919091525092959493602081019350359150506401000000008111156108c057600080fd5b8201836020820111156108d257600080fd5b803590602001918460018302840111640100000000831117156108f457600080fd5b91908080601f016020809104026020016040519081016040528093929190818152602001838380828437600092019190915250929550610f6c945050505050565b600260208181526000928352604092839020805484516001821615610100026000190190911693909304601f81018390048302840183019094528383529283918301828280156109c65780601f1061099b576101008083540402835291602001916109c6565b820191906000526020600020905b8154815290600101906020018083116109a957829003601f168201915b505050505090806001018054600181600116156101000203166002900480601f016020809104026020016040519081016040528092919081815260200182805460018160011615610100020316600290048015610a645780601f10610a3957610100808354040283529160200191610a64565b820191906000526020600020905b815481529060010190602001808311610a4757829003601f168201915b50505060028085018054604080516020601f6000196101006001871615020190941695909504928301859004850281018501909152818152959695945090925090830182828015610af65780601f10610acb57610100808354040283529160200191610af6565b820191906000526020600020905b815481529060010190602001808311610ad957829003601f168201915b5050505060038301805460408051602060026001851615610100026000190190941693909304601f8101849004840282018401909252818152949594935090830182828015610b865780601f10610b5b57610100808354040283529160200191610b86565b820191906000526020600020905b815481529060010190602001808311610b6957829003601f168201915b5050505060048301805460408051602060026001851615610100026000190190941693909304601f8101849004840282018401909252818152949594935090830182828015610c165780601f10610beb57610100808354040283529160200191610c16565b820191906000526020600020905b815481529060010190602001808311610bf957829003601f168201915b5050506005909301549192505060ff1686565b600160a060020a0381166000908152602081905260408120600381015460ff161515610c59576000915050610c5f565b60019150505b919050565b6000602081815291815260409081902080548251601f600260001961010060018616150201909316929092049182018590048502810185019093528083529092839190830182828015610cf85780601f10610ccd57610100808354040283529160200191610cf8565b820191906000526020600020905b815481529060010190602001808311610cdb57829003601f168201915b505050505090806001018054600181600116156101000203166002900480601f016020809104026020016040519081016040528092919081815260200182805460018160011615610100020316600290048015610d965780601f10610d6b57610100808354040283529160200191610d96565b820191906000526020600020905b815481529060010190602001808311610d7957829003601f168201915b50505060028085018054604080516020601f6000196101006001871615020190941695909504928301859004850281018501909152818152959695945090925090830182828015610e285780601f10610dfd57610100808354040283529160200191610e28565b820191906000526020600020905b815481529060010190602001808311610e0b57829003601f168201915b5050506003909301549192505060ff1684565b600160a060020a0384166000908152602081905260409020600381015460ff1615610ec757604080517f08c379a000000000000000000000000000000000000000000000000000000000815260206004820152601460248201527f5573657220416c72656164792045787369737473000000000000000000000000604482015290519081900360640190fd5b60408051608081018252858152602080820186905281830185905260016060830152600160a060020a0388166000908152808252929092208151805192939192610f1492849201906110e6565b506020828101518051610f2d92600185019201906110e6565b5060408201518051610f499160028401916020909101906110e6565b50606091909101516003909101805460ff19169115159190911790555050505050565b600160a060020a0386166000908152600260205260409020600581015460ff1615610ff857604080517f08c379a000000000000000000000000000000000000000000000000000000000815260206004820152601860248201527f50726f66696c6520697320616c72656164792073617665640000000000000000604482015290519081900360640190fd5b6040805160c08101825287815260208082018890528183018790526060820186905260808201859052600160a0830152600160a060020a038a1660009081526002825292909220815180519293919261105492849201906110e6565b50602082810151805161106d92600185019201906110e6565b50604082015180516110899160028401916020909101906110e6565b50606082015180516110a59160038401916020909101906110e6565b50608082015180516110c19160048401916020909101906110e6565b5060a091909101516005909101805460ff191691151591909117905550505050505050565b828054600181600116156101000203166002900490600052602060002090601f016020900481019282601f1061112757805160ff1916838001178555611154565b82800160010185558215611154579182015b82811115611154578251825591602001919060010190611139565b50611160929150611164565b5090565b61117e91905b80821115611160576000815560010161116a565b9056fea165627a7a7230582061969bd6bf61c05c60f1159e735c67469307a79ddce6226d61ded999cf1ac4220029",
  "source": "pragma solidity >=0.4.21 <0.6.0;\n\ncontract Signup {\n\n    struct User {\n        string username;\n        string  password;\n        string privateKey;\n        bool set;\n    }\n\n    struct userDetails{\n        \n        string name;\n        string DOB;\n        string gender;\n        string NIC;\n        string desigination;\n        bool set;\n    }\n\n    mapping(address => User) public users;\n    address [] addrList;\n    mapping(address => userDetails) public details;\n\n\n    function createUser(address _userAddress,string memory userName,string memory password,string memory _privateKey) public {\n        User storage user = users[_userAddress];\n        // Check that the user does not already exist:\n        require(!user.set,\"User Already Exsists\");\n        //Store the user\n        users[_userAddress] = User({\n            username: userName,\n            password: password,\n            privateKey: _privateKey,\n            set: true\n        });\n    }\n    function setUserDetail(address _userAddress, string memory name,string memory dob,string memory gender,\n    string memory nic,string memory desigination ) public {\n        userDetails storage detail = details[_userAddress];\n        require(!detail.set,\"Profile is already saved\");\n        //set Details\n        details[_userAddress] = userDetails({\n            name:name,\n            DOB:dob,\n            gender:gender,\n            NIC:nic,\n            desigination:desigination,\n            set:true\n        });\n}\n\n    function getUser(address _userAddress) public view returns (int) {\n        User storage user = users[_userAddress];\n        if (!user.set)\n        {\n            return 0;\n        }\n\n        return 1;\n    }\n\n//    function getUserDetails(address _userAddress) public view returns (User memory s, userDetails memory t) {\n//            s.username = users[_userAddress].username;\n//            s.password = users[_userAddress].password;\n//            s.privateKey = users[_userAddress].privateKey;\n\n//            t.name = details[_userAddress].name;\n//            t.DOB = details[_userAddress].DOB;\n//            t.gender = details[_userAddress].gender;\n//            t.NIC = details[_userAddress].NIC;\n//            t.desigination = details[_userAddress].desigination;\n\n//            }\n}\n\n",
  "sourcePath": "/home/danyal/Desktop/officeProjects/IDM-Ethereum-Dapp/smartContracts/contracts/SignUp.sol",
  "compiler": {
    "name": "solc",
    "version": "0.5.0+commit.1d4f565a.Emscripten.clang"
  },
  "schemaVersion": "3.0.2",
  "updatedAt": "2019-07-19T13:11:53.503Z",
  "devdoc": {
    "methods": {}
  },
  "userdoc": {
    "methods": {}
  }
}