{
  "contractName": "Signup",
  "abi": [
    {
      "constant": true,
      "inputs": [
        {
          "name": "",
          "type": "address"
        }
      ],
      "name": "details",
      "outputs": [
        {
          "name": "name",
          "type": "string"
        },
        {
          "name": "DOB",
          "type": "string"
        },
        {
          "name": "gender",
          "type": "string"
        },
        {
          "name": "NIC",
          "type": "string"
        },
        {
          "name": "desigination",
          "type": "string"
        },
        {
          "name": "set",
          "type": "bool"
        }
      ],
      "payable": false,
      "stateMutability": "view",
      "type": "function"
    },
    {
      "constant": true,
      "inputs": [
        {
          "name": "",
          "type": "address"
        }
      ],
      "name": "users",
      "outputs": [
        {
          "name": "username",
          "type": "string"
        },
        {
          "name": "password",
          "type": "string"
        },
        {
          "name": "privateKey",
          "type": "string"
        },
        {
          "name": "set",
          "type": "bool"
        }
      ],
      "payable": false,
      "stateMutability": "view",
      "type": "function"
    },
    {
      "constant": false,
      "inputs": [
        {
          "name": "_userAddress",
          "type": "address"
        },
        {
          "name": "userName",
          "type": "string"
        },
        {
          "name": "password",
          "type": "string"
        },
        {
          "name": "_privateKey",
          "type": "string"
        }
      ],
      "name": "createUser",
      "outputs": [],
      "payable": false,
      "stateMutability": "nonpayable",
      "type": "function"
    },
    {
      "constant": false,
      "inputs": [
        {
          "name": "_userAddress",
          "type": "address"
        },
        {
          "name": "name",
          "type": "string"
        },
        {
          "name": "dob",
          "type": "string"
        },
        {
          "name": "gender",
          "type": "string"
        },
        {
          "name": "nic",
          "type": "string"
        },
        {
          "name": "desigination",
          "type": "string"
        }
      ],
      "name": "setUserDetail",
      "outputs": [],
      "payable": false,
      "stateMutability": "nonpayable",
      "type": "function"
    },
    {
      "constant": true,
      "inputs": [
        {
          "name": "_userAddress",
          "type": "address"
        }
      ],
      "name": "getUser",
      "outputs": [
        {
          "name": "",
          "type": "int256"
        }
      ],
      "payable": false,
      "stateMutability": "view",
      "type": "function"
    },
    {
      "constant": true,
      "inputs": [
        {
          "name": "_userAddress",
          "type": "address"
        },
        {
          "name": "username",
          "type": "string"
        },
        {
          "name": "password",
          "type": "string"
        }
      ],
      "name": "login",
      "outputs": [
        {
          "name": "",
          "type": "address"
        }
      ],
      "payable": false,
      "stateMutability": "view",
      "type": "function"
    },
    {
      "constant": true,
      "inputs": [
        {
          "name": "_userAddress",
          "type": "address"
        }
      ],
      "name": "getUserDetails",
      "outputs": [
        {
          "components": [
            {
              "name": "username",
              "type": "string"
            },
            {
              "name": "password",
              "type": "string"
            },
            {
              "name": "privateKey",
              "type": "string"
            },
            {
              "name": "set",
              "type": "bool"
            }
          ],
          "name": "s",
          "type": "tuple"
        },
        {
          "components": [
            {
              "name": "name",
              "type": "string"
            },
            {
              "name": "DOB",
              "type": "string"
            },
            {
              "name": "gender",
              "type": "string"
            },
            {
              "name": "NIC",
              "type": "string"
            },
            {
              "name": "desigination",
              "type": "string"
            },
            {
              "name": "set",
              "type": "bool"
            }
          ],
          "name": "t",
          "type": "tuple"
        }
      ],
      "payable": false,
      "stateMutability": "view",
      "type": "function"
    }
  ],
  "bytecode": "0x608060405234801561001057600080fd5b50611749806100206000396000f3fe608060405234801561001057600080fd5b506004361061007d5760003560e01c8063a87430ba1161005b578063a87430ba146100f0578063c610d2ce14610113578063cc3d967b14610128578063e435ee8c146101495761007d565b806324a92f9f146100825780636f77926b146100b057806379329937146100d0575b600080fd5b61009561009036600461101f565b61015c565b6040516100a79695949392919061156e565b60405180910390f35b6100c36100be36600461101f565b610451565b6040516100a7919061150f565b6100e36100de366004611045565b61048a565b6040516100a79190611501565b6101036100fe36600461101f565b610569565b6040516100a7949392919061151d565b6101266101213660046110c2565b610740565b005b61013b61013636600461101f565b61082e565b6040516100a7929190611609565b61012661015736600461116b565b610d8e565b60016020818152600092835260409283902080548451600294821615610100026000190190911693909304601f81018390048302840183019094528383529283918301828280156101ee5780601f106101c3576101008083540402835291602001916101ee565b820191906000526020600020905b8154815290600101906020018083116101d157829003601f168201915b505050505090806001018054600181600116156101000203166002900480601f01602080910402602001604051908101604052809291908181526020018280546001816001161561010002031660029004801561028c5780601f106102615761010080835404028352916020019161028c565b820191906000526020600020905b81548152906001019060200180831161026f57829003601f168201915b50505060028085018054604080516020601f600019610100600187161502019094169590950492830185900485028101850190915281815295969594509092509083018282801561031e5780601f106102f35761010080835404028352916020019161031e565b820191906000526020600020905b81548152906001019060200180831161030157829003601f168201915b5050505060038301805460408051602060026001851615610100026000190190941693909304601f81018490048402820184019092528181529495949350908301828280156103ae5780601f10610383576101008083540402835291602001916103ae565b820191906000526020600020905b81548152906001019060200180831161039157829003601f168201915b5050505060048301805460408051602060026001851615610100026000190190941693909304601f810184900484028201840190925281815294959493509083018282801561043e5780601f106104135761010080835404028352916020019161043e565b820191906000526020600020905b81548152906001019060200180831161042157829003601f168201915b5050506005909301549192505060ff1686565b6001600160a01b0381166000908152602081905260408120600381015460ff1661047f576000915050610485565b60019150505b919050565b6001600160a01b03831660009081526020818152604080832090516104af92016114f5565b60405160208183030381529060405280519060200120836040516020016104d691906114e9565b604051602081830303815290604052805190602001201415610562576001600160a01b03841660009081526020818152604091829020915161051c9260010191016114f5565b604051602081830303815290604052805190602001208260405160200161054391906114e9565b6040516020818303038152906040528051906020012014156105625750825b9392505050565b6000602081815291815260409081902080548251601f6002600019610100600186161502019093169290920491820185900485028101850190935280835290928391908301828280156105fd5780601f106105d2576101008083540402835291602001916105fd565b820191906000526020600020905b8154815290600101906020018083116105e057829003601f168201915b505050505090806001018054600181600116156101000203166002900480601f01602080910402602001604051908101604052809291908181526020018280546001816001161561010002031660029004801561069b5780601f106106705761010080835404028352916020019161069b565b820191906000526020600020905b81548152906001019060200180831161067e57829003601f168201915b50505060028085018054604080516020601f600019610100600187161502019094169590950492830185900485028101850190915281815295969594509092509083018282801561072d5780601f106107025761010080835404028352916020019161072d565b820191906000526020600020905b81548152906001019060200180831161071057829003601f168201915b5050506003909301549192505060ff1684565b6001600160a01b0384166000908152602081905260409020600381015460ff161561078957604051600160e51b62461bcd028152600401610780906115f9565b60405180910390fd5b604080516080810182528581526020808201869052818301859052600160608301526001600160a01b03881660009081528082529290922081518051929391926107d69284920190610ebd565b5060208281015180516107ef9260018501920190610ebd565b506040820151805161080b916002840191602090910190610ebd565b50606091909101516003909101805460ff19169115159190911790555050505050565b610836610f3b565b61083e610f65565b6001600160a01b0383166000908152602081815260409182902080548351601f6002600019610100600186161502019093169290920491820184900484028101840190945280845290918301828280156108d95780601f106108ae576101008083540402835291602001916108d9565b820191906000526020600020905b8154815290600101906020018083116108bc57829003601f168201915b50505091845250506001600160a01b03831660009081526020818152604091829020600190810180548451600293821615610100026000190190911692909204601f8101849004840283018401909452838252909290918301828280156109815780601f1061095657610100808354040283529160200191610981565b820191906000526020600020905b81548152906001019060200180831161096457829003601f168201915b50505050506020838101919091526001600160a01b03841660009081528082526040908190206002908101805483516001821615610100026000190190911692909204601f81018590048502830185019093528282529092909190830182828015610a2d5780601f10610a0257610100808354040283529160200191610a2d565b820191906000526020600020905b815481529060010190602001808311610a1057829003601f168201915b50505050506040838101919091526001600160a01b0384166000908152600160208181529183902080548451600293821615610100026000190190911692909204601f810184900484028301840190945283825290929091830182828015610ad65780601f10610aab57610100808354040283529160200191610ad6565b820191906000526020600020905b815481529060010190602001808311610ab957829003601f168201915b50505091835250506001600160a01b038316600090815260016020818152604092839020820180548451600294821615610100026000190190911693909304601f8101839004830284018301909452838352919290830182828015610b7c5780601f10610b5157610100808354040283529160200191610b7c565b820191906000526020600020905b815481529060010190602001808311610b5f57829003601f168201915b50505050506020828101919091526001600160a01b038416600090815260018083526040918290206002908101805484519381161561010002600019011691909104601f81018590048502830185019093528282529092909190830182828015610c275780601f10610bfc57610100808354040283529160200191610c27565b820191906000526020600020905b815481529060010190602001808311610c0a57829003601f168201915b50505050506040828101919091526001600160a01b0384166000908152600160208181529183902060030180548451600293821615610100026000190190911692909204601f810184900484028301840190945283825290929091830182828015610cd35780601f10610ca857610100808354040283529160200191610cd3565b820191906000526020600020905b815481529060010190602001808311610cb657829003601f168201915b505050505060608201526001600160a01b03831660009081526001602081815260409283902060040180548451600294821615610100026000190190911693909304601f8101839004830284018301909452838352919290830182828015610d7c5780601f10610d5157610100808354040283529160200191610d7c565b820191906000526020600020905b815481529060010190602001808311610d5f57829003601f168201915b50505050508160800181905250915091565b6001600160a01b0386166000908152600160205260409020600581015460ff1615610dce57604051600160e51b62461bcd028152600401610780906115e9565b6040805160c08101825287815260208082018890528183018790526060820186905260808201859052600160a083018190526001600160a01b038b166000908152908252929092208151805192939192610e2b9284920190610ebd565b506020828101518051610e449260018501920190610ebd565b5060408201518051610e60916002840191602090910190610ebd565b5060608201518051610e7c916003840191602090910190610ebd565b5060808201518051610e98916004840191602090910190610ebd565b5060a091909101516005909101805460ff191691151591909117905550505050505050565b828054600181600116156101000203166002900490600052602060002090601f016020900481019282601f10610efe57805160ff1916838001178555610f2b565b82800160010185558215610f2b579182015b82811115610f2b578251825591602001919060010190610f10565b50610f37929150610f9d565b5090565b60405180608001604052806060815260200160608152602001606081526020016000151581525090565b6040518060c0016040528060608152602001606081526020016060815260200160608152602001606081526020016000151581525090565b610fb791905b80821115610f375760008155600101610fa3565b90565b8035610fc5816116f8565b92915050565b600082601f830112610fdc57600080fd5b8135610fef610fea82611655565b61162e565b9150808252602083016020830185838301111561100b57600080fd5b6110168382846116b2565b50505092915050565b60006020828403121561103157600080fd5b600061103d8484610fba565b949350505050565b60008060006060848603121561105a57600080fd5b60006110668686610fba565b935050602084013567ffffffffffffffff81111561108357600080fd5b61108f86828701610fcb565b925050604084013567ffffffffffffffff8111156110ac57600080fd5b6110b886828701610fcb565b9150509250925092565b600080600080608085870312156110d857600080fd5b60006110e48787610fba565b945050602085013567ffffffffffffffff81111561110157600080fd5b61110d87828801610fcb565b935050604085013567ffffffffffffffff81111561112a57600080fd5b61113687828801610fcb565b925050606085013567ffffffffffffffff81111561115357600080fd5b61115f87828801610fcb565b91505092959194509250565b60008060008060008060c0878903121561118457600080fd5b60006111908989610fba565b965050602087013567ffffffffffffffff8111156111ad57600080fd5b6111b989828a01610fcb565b955050604087013567ffffffffffffffff8111156111d657600080fd5b6111e289828a01610fcb565b945050606087013567ffffffffffffffff8111156111ff57600080fd5b61120b89828a01610fcb565b935050608087013567ffffffffffffffff81111561122857600080fd5b61123489828a01610fcb565b92505060a087013567ffffffffffffffff81111561125157600080fd5b61125d89828a01610fcb565b9150509295509295509295565b61127381611696565b82525050565b611273816116a1565b61127381610fb7565b600061129682611689565b6112a08185610485565b93506112b08185602086016116be565b9290920192915050565b60006112c582611689565b6112cf818561168d565b93506112df8185602086016116be565b6112e8816116ee565b9093019392505050565b60008154600181166000811461130f576001811461133257611371565b607f60028304166113208187610485565b60ff1984168152955085019250611371565b600282046113408187610485565b955061134b8561167d565b60005b8281101561136a5781548882015260019091019060200161134e565b5050850192505b505092915050565b600061138660188361168d565b7f50726f66696c6520697320616c72656164792073617665640000000000000000815260200192915050565b60006113bf60148361168d565b7f5573657220416c72656164792045787369737473000000000000000000000000815260200192915050565b805160808084526000919084019061140382826112ba565b9150506020830151848203602086015261141d82826112ba565b9150506040830151848203604086015261143782826112ba565b915050606083015161144c6060860182611279565b509392505050565b805160c08084526000919084019061146c82826112ba565b9150506020830151848203602086015261148682826112ba565b915050604083015184820360408601526114a082826112ba565b915050606083015184820360608601526114ba82826112ba565b915050608083015184820360808601526114d482826112ba565b91505060a083015161144c60a0860182611279565b6000610562828461128b565b600061056282846112f2565b60208101610fc5828461126a565b60208101610fc58284611282565b6080808252810161152e81876112ba565b9050818103602083015261154281866112ba565b9050818103604083015261155681856112ba565b90506115656060830184611279565b95945050505050565b60c0808252810161157f81896112ba565b9050818103602083015261159381886112ba565b905081810360408301526115a781876112ba565b905081810360608301526115bb81866112ba565b905081810360808301526115cf81856112ba565b90506115de60a0830184611279565b979650505050505050565b60208082528101610fc581611379565b60208082528101610fc5816113b2565b6040808252810161161a81856113eb565b9050818103602083015261103d8184611454565b60405181810167ffffffffffffffff8111828210171561164d57600080fd5b604052919050565b600067ffffffffffffffff82111561166c57600080fd5b506020601f91909101601f19160190565b60009081526020902090565b5190565b90815260200190565b6000610fc5826116a6565b151590565b6001600160a01b031690565b82818337506000910152565b60005b838110156116d95781810151838201526020016116c1565b838111156116e8576000848401525b50505050565b601f01601f191690565b61170181611696565b811461170c57600080fd5b5056fea265627a7a7230582058d94b27748c0bdd84c29ee78b031d0b2f978057106472a30753f3aa81aeb1646c6578706572696d656e74616cf50037",
  "source": "pragma solidity >=0.4.21 <0.6.0;\npragma experimental ABIEncoderV2; \ncontract Signup {\n\n    struct User {\n        string username;\n        string  password;\n        string privateKey;\n        bool set;\n    }\n\n    struct userDetails{\n        \n        string name;\n        string DOB;\n        string gender;\n        string NIC;\n        string desigination;\n        bool set;\n    }\n\n    mapping(address => User) public users;\n    mapping(address => userDetails) public details;\n\n\n    function createUser(address _userAddress,string memory userName,string memory password,string memory _privateKey) public {\n        User storage user = users[_userAddress];\n        // Check that the user does not already exist:\n        require(!user.set,\"User Already Exsists\");\n        //Store the user\n        users[_userAddress] = User({\n            username: userName,\n            password: password,\n            privateKey: _privateKey,\n            set: true\n        });\n    }\n    function setUserDetail(address _userAddress, string memory name,string memory dob,string memory gender,\n    string memory nic,string memory desigination ) public {\n        userDetails storage detail = details[_userAddress];\n        require(!detail.set,\"Profile is already saved\");\n        //set Details\n        details[_userAddress] = userDetails({\n            name:name,\n            DOB:dob,\n            gender:gender,\n            NIC:nic,\n            desigination:desigination,\n            set:true\n        });\n}\n\n    function getUser(address _userAddress) public view returns (int) {\n        User storage user = users[_userAddress];\n        if (!user.set)\n        {\n            return 0;\n        }\n\n        return 1;\n    }\n    function login(address _userAddress, string memory username, string memory password) public view returns (address){\n       if (keccak256(abi.encodePacked((username))) == keccak256(abi.encodePacked((users[_userAddress].username)))){\n           if( keccak256(abi.encodePacked((password))) == keccak256(abi.encodePacked((users[_userAddress].password)))){\n           return _userAddress;\n           }\n       }\n    }\n\n   function getUserDetails(address _userAddress) public view returns (User memory s, userDetails memory t) {\n           s.username = users[_userAddress].username;\n           s.password = users[_userAddress].password;\n           s.privateKey = users[_userAddress].privateKey;\n\n           t.name = details[_userAddress].name;\n           t.DOB = details[_userAddress].DOB;\n           t.gender = details[_userAddress].gender;\n           t.NIC = details[_userAddress].NIC;\n           t.desigination = details[_userAddress].desigination;\n\n           }\n}\n\n",
  "sourcePath": "/home/trs-laptop-20/Project/Ethereum/IDM-Ethereum-Dapp/smartContracts/contracts/SignUp.sol",
  "compiler": {
    "name": "solc",
    "version": "0.5.8+commit.23d335f2.Emscripten.clang"
  },
  "schemaVersion": "3.0.11",
  "updatedAt": "2019-07-23T05:29:06.558Z",
  "devdoc": {
    "methods": {}
  },
  "userdoc": {
    "methods": {}
  }
}