{
  "contractName": "Signup",
  "abi": [
    {
      "constant": true,
      "inputs": [
        {
          "name": "",
          "type": "address"
        }
      ],
      "name": "users",
      "outputs": [
        {
          "name": "name",
          "type": "string"
        },
        {
          "name": "password",
          "type": "string"
        },
        {
          "name": "privateKey",
          "type": "string"
        },
        {
          "name": "set",
          "type": "bool"
        }
      ],
      "payable": false,
      "stateMutability": "view",
      "type": "function",
      "signature": "0xa87430ba"
    },
    {
      "constant": false,
      "inputs": [
        {
          "name": "_userAddress",
          "type": "address"
        },
        {
          "name": "userName",
          "type": "string"
        },
        {
          "name": "password",
          "type": "string"
        },
        {
          "name": "_privateKey",
          "type": "string"
        }
      ],
      "name": "createUser",
      "outputs": [],
      "payable": false,
      "stateMutability": "nonpayable",
      "type": "function",
      "signature": "0xc610d2ce"
    },
    {
      "constant": true,
      "inputs": [
        {
          "name": "_userAddress",
          "type": "address"
        }
      ],
      "name": "getUser",
      "outputs": [
        {
          "name": "",
          "type": "int256"
        }
      ],
      "payable": false,
      "stateMutability": "view",
      "type": "function",
      "signature": "0x6f77926b"
    }
  ],
  "bytecode": "0x608060405234801561001057600080fd5b50610977806100206000396000f3fe608060405260043610610057576000357c0100000000000000000000000000000000000000000000000000000000900463ffffffff1680636f77926b1461005c578063a87430ba146100c1578063c610d2ce1461026e575b600080fd5b34801561006857600080fd5b506100ab6004803603602081101561007f57600080fd5b81019080803573ffffffffffffffffffffffffffffffffffffffff169060200190929190505050610484565b6040518082815260200191505060405180910390f35b3480156100cd57600080fd5b50610110600480360360208110156100e457600080fd5b81019080803573ffffffffffffffffffffffffffffffffffffffff1690602001909291905050506104f4565b6040518080602001806020018060200185151515158152602001848103845288818151815260200191508051906020019080838360005b83811015610162578082015181840152602081019050610147565b50505050905090810190601f16801561018f5780820380516001836020036101000a031916815260200191505b50848103835287818151815260200191508051906020019080838360005b838110156101c85780820151818401526020810190506101ad565b50505050905090810190601f1680156101f55780820380516001836020036101000a031916815260200191505b50848103825286818151815260200191508051906020019080838360005b8381101561022e578082015181840152602081019050610213565b50505050905090810190601f16801561025b5780820380516001836020036101000a031916815260200191505b5097505050505050505060405180910390f35b34801561027a57600080fd5b506104826004803603608081101561029157600080fd5b81019080803573ffffffffffffffffffffffffffffffffffffffff169060200190929190803590602001906401000000008111156102ce57600080fd5b8201836020820111156102e057600080fd5b8035906020019184600183028401116401000000008311171561030257600080fd5b91908080601f016020809104026020016040519081016040528093929190818152602001838380828437600081840152601f19601f8201169050808301925050505050505091929192908035906020019064010000000081111561036557600080fd5b82018360208201111561037757600080fd5b8035906020019184600183028401116401000000008311171561039957600080fd5b91908080601f016020809104026020016040519081016040528093929190818152602001838380828437600081840152601f19601f820116905080830192505050505050509192919290803590602001906401000000008111156103fc57600080fd5b82018360208201111561040e57600080fd5b8035906020019184600183028401116401000000008311171561043057600080fd5b91908080601f016020809104026020016040519081016040528093929190818152602001838380828437600081840152601f19601f8201169050808301925050505050505091929192905050506106f9565b005b6000806000808473ffffffffffffffffffffffffffffffffffffffff1673ffffffffffffffffffffffffffffffffffffffff16815260200190815260200160002090508060030160009054906101000a900460ff1615156104e95760009150506104ef565b60019150505b919050565b6000602052806000526040600020600091509050806000018054600181600116156101000203166002900480601f0160208091040260200160405190810160405280929190818152602001828054600181600116156101000203166002900480156105a05780601f10610575576101008083540402835291602001916105a0565b820191906000526020600020905b81548152906001019060200180831161058357829003601f168201915b505050505090806001018054600181600116156101000203166002900480601f01602080910402602001604051908101604052809291908181526020018280546001816001161561010002031660029004801561063e5780601f106106135761010080835404028352916020019161063e565b820191906000526020600020905b81548152906001019060200180831161062157829003601f168201915b505050505090806002018054600181600116156101000203166002900480601f0160208091040260200160405190810160405280929190818152602001828054600181600116156101000203166002900480156106dc5780601f106106b1576101008083540402835291602001916106dc565b820191906000526020600020905b8154815290600101906020018083116106bf57829003601f168201915b5050505050908060030160009054906101000a900460ff16905084565b60008060008673ffffffffffffffffffffffffffffffffffffffff1673ffffffffffffffffffffffffffffffffffffffff16815260200190815260200160002090508060030160009054906101000a900460ff161515156107c2576040517f08c379a00000000000000000000000000000000000000000000000000000000081526004018080602001828103825260148152602001807f5573657220416c7265616479204578736973747300000000000000000000000081525060200191505060405180910390fd5b608060405190810160405280858152602001848152602001838152602001600115158152506000808773ffffffffffffffffffffffffffffffffffffffff1673ffffffffffffffffffffffffffffffffffffffff16815260200190815260200160002060008201518160000190805190602001906108419291906108a6565b50602082015181600101908051906020019061085e9291906108a6565b50604082015181600201908051906020019061087b9291906108a6565b5060608201518160030160006101000a81548160ff0219169083151502179055509050505050505050565b828054600181600116156101000203166002900490600052602060002090601f016020900481019282601f106108e757805160ff1916838001178555610915565b82800160010185558215610915579182015b828111156109145782518255916020019190600101906108f9565b5b5090506109229190610926565b5090565b61094891905b8082111561094457600081600090555060010161092c565b5090565b9056fea165627a7a72305820def7b4719968bea1703a4db5e6f03500b0cc8baa878832049f7b196c2ee67ef60029",
  "source": "pragma solidity >=0.4.21 <0.6.0;\n\ncontract Signup {\n\n    struct User {\n        string name;\n        string password;\n        string privateKey;\n        bool set;\n    }\n\n    mapping(address => User) public users;\n\n    function createUser(address _userAddress, string memory userName, string memory password, string memory _privateKey) public {\n        User storage user = users[_userAddress];\n        // Check that the user does not already exist:\n        require(!user.set,\"User Already Exsists\");\n        //Store the user\n        users[_userAddress] = User({\n            name: userName,\n            password: password,\n            privateKey: _privateKey,\n            set: true\n        });\n    }\n\n    function getUser(address _userAddress) public view returns (int) {\n        User storage user = users[_userAddress];\n        if (!user.set)\n        {\n            return 0;\n        }\n\n        return 1;\n    }\n}\n\n",
  "sourcePath": "/home/danyal/Desktop/officeProjects/IDM-Ethereum-Dapp/smartContracts/contracts/SignUp.sol",
  "compiler": {
    "name": "solc",
    "version": "0.5.0+commit.1d4f565a.Emscripten.clang"
  },
  "schemaVersion": "3.0.2",
  "updatedAt": "2019-07-12T13:21:50.084Z",
  "devdoc": {
    "methods": {}
  },
  "userdoc": {
    "methods": {}
  }
}