{
  "contractName": "Signup",
  "abi": [
    {
      "constant": true,
      "inputs": [
        {
          "name": "",
          "type": "address"
        }
      ],
      "name": "users",
      "outputs": [
        {
          "name": "name",
          "type": "string"
        },
        {
          "name": "password",
          "type": "string"
        },
        {
          "name": "set",
          "type": "bool"
        }
      ],
      "payable": false,
      "stateMutability": "view",
      "type": "function",
      "signature": "0xa87430ba"
    },
    {
      "constant": false,
      "inputs": [
        {
          "name": "_userAddress",
          "type": "address"
        },
        {
          "name": "userName",
          "type": "string"
        },
        {
          "name": "password",
          "type": "string"
        }
      ],
      "name": "createUser",
      "outputs": [],
      "payable": false,
      "stateMutability": "nonpayable",
      "type": "function",
      "signature": "0x4ceb48fd"
    },
    {
      "constant": true,
      "inputs": [
        {
          "name": "_userAddress",
          "type": "address"
        }
      ],
      "name": "getUser",
      "outputs": [
        {
          "name": "",
          "type": "int256"
        }
      ],
      "payable": false,
      "stateMutability": "view",
      "type": "function",
      "signature": "0x6f77926b"
    }
  ],
  "bytecode": "0x608060405234801561001057600080fd5b506107b2806100206000396000f3fe608060405260043610610057576000357c0100000000000000000000000000000000000000000000000000000000900463ffffffff1680634ceb48fd1461005c5780636f77926b146101db578063a87430ba14610240575b600080fd5b34801561006857600080fd5b506101d96004803603606081101561007f57600080fd5b81019080803573ffffffffffffffffffffffffffffffffffffffff169060200190929190803590602001906401000000008111156100bc57600080fd5b8201836020820111156100ce57600080fd5b803590602001918460018302840111640100000000831117156100f057600080fd5b91908080601f016020809104026020016040519081016040528093929190818152602001838380828437600081840152601f19601f8201169050808301925050505050505091929192908035906020019064010000000081111561015357600080fd5b82018360208201111561016557600080fd5b8035906020019184600183028401116401000000008311171561018757600080fd5b91908080601f016020809104026020016040519081016040528093929190818152602001838380828437600081840152601f19601f820116905080830192505050505050509192919290505050610381565b005b3480156101e757600080fd5b5061022a600480360360208110156101fe57600080fd5b81019080803573ffffffffffffffffffffffffffffffffffffffff16906020019092919050505061050a565b6040518082815260200191505060405180910390f35b34801561024c57600080fd5b5061028f6004803603602081101561026357600080fd5b81019080803573ffffffffffffffffffffffffffffffffffffffff16906020019092919050505061057a565b60405180806020018060200184151515158152602001838103835286818151815260200191508051906020019080838360005b838110156102dd5780820151818401526020810190506102c2565b50505050905090810190601f16801561030a5780820380516001836020036101000a031916815260200191505b50838103825285818151815260200191508051906020019080838360005b83811015610343578082015181840152602081019050610328565b50505050905090810190601f1680156103705780820380516001836020036101000a031916815260200191505b509550505050505060405180910390f35b60008060008573ffffffffffffffffffffffffffffffffffffffff1673ffffffffffffffffffffffffffffffffffffffff16815260200190815260200160002090508060020160009054906101000a900460ff1615151561044a576040517f08c379a00000000000000000000000000000000000000000000000000000000081526004018080602001828103825260148152602001807f5573657220416c7265616479204578736973747300000000000000000000000081525060200191505060405180910390fd5b606060405190810160405280848152602001838152602001600115158152506000808673ffffffffffffffffffffffffffffffffffffffff1673ffffffffffffffffffffffffffffffffffffffff16815260200190815260200160002060008201518160000190805190602001906104c39291906106e1565b5060208201518160010190805190602001906104e09291906106e1565b5060408201518160020160006101000a81548160ff02191690831515021790555090505050505050565b6000806000808473ffffffffffffffffffffffffffffffffffffffff1673ffffffffffffffffffffffffffffffffffffffff16815260200190815260200160002090508060020160009054906101000a900460ff16151561056f576000915050610575565b60019150505b919050565b6000602052806000526040600020600091509050806000018054600181600116156101000203166002900480601f0160208091040260200160405190810160405280929190818152602001828054600181600116156101000203166002900480156106265780601f106105fb57610100808354040283529160200191610626565b820191906000526020600020905b81548152906001019060200180831161060957829003601f168201915b505050505090806001018054600181600116156101000203166002900480601f0160208091040260200160405190810160405280929190818152602001828054600181600116156101000203166002900480156106c45780601f10610699576101008083540402835291602001916106c4565b820191906000526020600020905b8154815290600101906020018083116106a757829003601f168201915b5050505050908060020160009054906101000a900460ff16905083565b828054600181600116156101000203166002900490600052602060002090601f016020900481019282601f1061072257805160ff1916838001178555610750565b82800160010185558215610750579182015b8281111561074f578251825591602001919060010190610734565b5b50905061075d9190610761565b5090565b61078391905b8082111561077f576000816000905550600101610767565b5090565b9056fea165627a7a723058208bf690eab7e5b5eedb29fe5e297ea79f52f0fd8bd7f7c21ba0fd3402a9eb94790029",
  "source": "pragma solidity >=0.4.21 <0.6.0;\n\ncontract Signup {\n\n    struct User {\n        string name;\n        string password;\n        bool set;\n    }\n\n    mapping(address => User) public users;\n\n    function createUser(address _userAddress, string memory userName, string memory password) public {\n        User storage user = users[_userAddress];\n        // Check that the user did not already exist:\n        require(!user.set,\"User Already Exsists\");\n        //Store the user\n        users[_userAddress] = User({\n            name: userName,\n            password: password,\n            set: true\n        });\n    }\n\n    function getUser(address _userAddress) public view returns (int) {\n        User storage user = users[_userAddress];\n        // require(!user.set,\"Address is in use\");\n        if (!user.set)\n        {\n            return 0;\n        }\n\n        return 1;\n    }\n}\n\n",
  "sourcePath": "/home/danyal/Desktop/officeProjects/IDM-Ethereum-Dapp/contracts/SignUp.sol",
  "compiler": {
    "name": "solc",
    "version": "0.5.0+commit.1d4f565a.Emscripten.clang"
  },
  "schemaVersion": "3.0.2",
  "updatedAt": "2019-07-12T06:22:50.775Z",
  "devdoc": {
    "methods": {}
  },
  "userdoc": {
    "methods": {}
  }
}