{
  "contractName": "Signup",
  "abi": [
    {
      "constant": true,
      "inputs": [
        {
          "name": "",
          "type": "address"
        }
      ],
      "name": "details",
      "outputs": [
        {
          "name": "name",
          "type": "string"
        },
        {
          "name": "DOB",
          "type": "string"
        },
        {
          "name": "gender",
          "type": "string"
        },
        {
          "name": "NIC",
          "type": "string"
        },
        {
          "name": "desigination",
          "type": "string"
        },
        {
          "name": "set",
          "type": "bool"
        }
      ],
      "payable": false,
      "stateMutability": "view",
      "type": "function"
    },
    {
      "constant": true,
      "inputs": [
        {
          "name": "",
          "type": "address"
        }
      ],
      "name": "users",
      "outputs": [
        {
          "name": "username",
          "type": "string"
        },
        {
          "name": "password",
          "type": "string"
        },
        {
          "name": "privateKey",
          "type": "string"
        },
        {
          "name": "set",
          "type": "bool"
        }
      ],
      "payable": false,
      "stateMutability": "view",
      "type": "function"
    },
    {
      "constant": false,
      "inputs": [
        {
          "name": "_userAddress",
          "type": "address"
        },
        {
          "name": "userName",
          "type": "string"
        },
        {
          "name": "password",
          "type": "string"
        },
        {
          "name": "_privateKey",
          "type": "string"
        }
      ],
      "name": "createUser",
      "outputs": [],
      "payable": false,
      "stateMutability": "nonpayable",
      "type": "function"
    },
    {
      "constant": false,
      "inputs": [
        {
          "name": "_userAddress",
          "type": "address"
        },
        {
          "name": "name",
          "type": "string"
        },
        {
          "name": "dob",
          "type": "string"
        },
        {
          "name": "gender",
          "type": "string"
        },
        {
          "name": "nic",
          "type": "string"
        },
        {
          "name": "desigination",
          "type": "string"
        }
      ],
      "name": "setDetail",
      "outputs": [],
      "payable": false,
      "stateMutability": "nonpayable",
      "type": "function"
    },
    {
      "constant": true,
      "inputs": [
        {
          "name": "_userAddress",
          "type": "address"
        }
      ],
      "name": "getUser",
      "outputs": [
        {
          "name": "",
          "type": "int256"
        }
      ],
      "payable": false,
      "stateMutability": "view",
      "type": "function"
    },
    {
      "constant": true,
      "inputs": [
        {
          "name": "_userAddress",
          "type": "address"
        }
      ],
      "name": "get",
      "outputs": [
        {
          "components": [
            {
              "name": "username",
              "type": "string"
            },
            {
              "name": "password",
              "type": "string"
            },
            {
              "name": "privateKey",
              "type": "string"
            },
            {
              "name": "set",
              "type": "bool"
            }
          ],
          "name": "s",
          "type": "tuple"
        },
        {
          "components": [
            {
              "name": "name",
              "type": "string"
            },
            {
              "name": "DOB",
              "type": "string"
            },
            {
              "name": "gender",
              "type": "string"
            },
            {
              "name": "NIC",
              "type": "string"
            },
            {
              "name": "desigination",
              "type": "string"
            },
            {
              "name": "set",
              "type": "bool"
            }
          ],
          "name": "t",
          "type": "tuple"
        }
      ],
      "payable": false,
      "stateMutability": "view",
      "type": "function"
    }
  ],
  "bytecode": "0x608060405234801561001057600080fd5b506114c1806100206000396000f3fe608060405234801561001057600080fd5b50600436106100625760003560e01c806324a92f9f14610067578063314288d9146100955780636f77926b146100aa578063a87430ba146100ca578063c2bc2efc146100ed578063c610d2ce1461010e575b600080fd5b61007a610075366004610f05565b610121565b60405161008c969594939291906112f2565b60405180910390f35b6100a86100a3366004610fd4565b610416565b005b6100bd6100b8366004610f05565b61054e565b60405161008c9190611293565b6100dd6100d8366004610f05565b610587565b60405161008c94939291906112a1565b6101006100fb366004610f05565b61075e565b60405161008c92919061138d565b6100a861011c366004610f2b565b610cbe565b60016020818152600092835260409283902080548451600294821615610100026000190190911693909304601f81018390048302840183019094528383529283918301828280156101b35780601f10610188576101008083540402835291602001916101b3565b820191906000526020600020905b81548152906001019060200180831161019657829003601f168201915b505050505090806001018054600181600116156101000203166002900480601f0160208091040260200160405190810160405280929190818152602001828054600181600116156101000203166002900480156102515780601f1061022657610100808354040283529160200191610251565b820191906000526020600020905b81548152906001019060200180831161023457829003601f168201915b50505060028085018054604080516020601f60001961010060018716150201909416959095049283018590048502810185019091528181529596959450909250908301828280156102e35780601f106102b8576101008083540402835291602001916102e3565b820191906000526020600020905b8154815290600101906020018083116102c657829003601f168201915b5050505060038301805460408051602060026001851615610100026000190190941693909304601f81018490048402820184019092528181529495949350908301828280156103735780601f1061034857610100808354040283529160200191610373565b820191906000526020600020905b81548152906001019060200180831161035657829003601f168201915b5050505060048301805460408051602060026001851615610100026000190190941693909304601f81018490048402820184019092528181529495949350908301828280156104035780601f106103d857610100808354040283529160200191610403565b820191906000526020600020905b8154815290600101906020018083116103e657829003601f168201915b5050506005909301549192505060ff1686565b6001600160a01b0386166000908152600160205260409020600581015460ff161561045f57604051600160e51b62461bcd0281526004016104569061136d565b60405180910390fd5b6040805160c08101825287815260208082018890528183018790526060820186905260808201859052600160a083018190526001600160a01b038b1660009081529082529290922081518051929391926104bc9284920190610da3565b5060208281015180516104d59260018501920190610da3565b50604082015180516104f1916002840191602090910190610da3565b506060820151805161050d916003840191602090910190610da3565b5060808201518051610529916004840191602090910190610da3565b5060a091909101516005909101805460ff191691151591909117905550505050505050565b6001600160a01b0381166000908152602081905260408120600381015460ff1661057c576000915050610582565b60019150505b919050565b6000602081815291815260409081902080548251601f60026000196101006001861615020190931692909204918201859004850281018501909352808352909283919083018282801561061b5780601f106105f05761010080835404028352916020019161061b565b820191906000526020600020905b8154815290600101906020018083116105fe57829003601f168201915b505050505090806001018054600181600116156101000203166002900480601f0160208091040260200160405190810160405280929190818152602001828054600181600116156101000203166002900480156106b95780601f1061068e576101008083540402835291602001916106b9565b820191906000526020600020905b81548152906001019060200180831161069c57829003601f168201915b50505060028085018054604080516020601f600019610100600187161502019094169590950492830185900485028101850190915281815295969594509092509083018282801561074b5780601f106107205761010080835404028352916020019161074b565b820191906000526020600020905b81548152906001019060200180831161072e57829003601f168201915b5050506003909301549192505060ff1684565b610766610e21565b61076e610e4b565b6001600160a01b0383166000908152602081815260409182902080548351601f6002600019610100600186161502019093169290920491820184900484028101840190945280845290918301828280156108095780601f106107de57610100808354040283529160200191610809565b820191906000526020600020905b8154815290600101906020018083116107ec57829003601f168201915b50505091845250506001600160a01b03831660009081526020818152604091829020600190810180548451600293821615610100026000190190911692909204601f8101849004840283018401909452838252909290918301828280156108b15780601f10610886576101008083540402835291602001916108b1565b820191906000526020600020905b81548152906001019060200180831161089457829003601f168201915b50505050506020838101919091526001600160a01b03841660009081528082526040908190206002908101805483516001821615610100026000190190911692909204601f8101859004850283018501909352828252909290919083018282801561095d5780601f106109325761010080835404028352916020019161095d565b820191906000526020600020905b81548152906001019060200180831161094057829003601f168201915b50505050506040838101919091526001600160a01b0384166000908152600160208181529183902080548451600293821615610100026000190190911692909204601f810184900484028301840190945283825290929091830182828015610a065780601f106109db57610100808354040283529160200191610a06565b820191906000526020600020905b8154815290600101906020018083116109e957829003601f168201915b50505091835250506001600160a01b038316600090815260016020818152604092839020820180548451600294821615610100026000190190911693909304601f8101839004830284018301909452838352919290830182828015610aac5780601f10610a8157610100808354040283529160200191610aac565b820191906000526020600020905b815481529060010190602001808311610a8f57829003601f168201915b50505050506020828101919091526001600160a01b038416600090815260018083526040918290206002908101805484519381161561010002600019011691909104601f81018590048502830185019093528282529092909190830182828015610b575780601f10610b2c57610100808354040283529160200191610b57565b820191906000526020600020905b815481529060010190602001808311610b3a57829003601f168201915b50505050506040828101919091526001600160a01b0384166000908152600160208181529183902060030180548451600293821615610100026000190190911692909204601f810184900484028301840190945283825290929091830182828015610c035780601f10610bd857610100808354040283529160200191610c03565b820191906000526020600020905b815481529060010190602001808311610be657829003601f168201915b505050505060608201526001600160a01b03831660009081526001602081815260409283902060040180548451600294821615610100026000190190911693909304601f8101839004830284018301909452838352919290830182828015610cac5780601f10610c8157610100808354040283529160200191610cac565b820191906000526020600020905b815481529060010190602001808311610c8f57829003601f168201915b50505050508160800181905250915091565b6001600160a01b0384166000908152602081905260409020600381015460ff1615610cfe57604051600160e51b62461bcd0281526004016104569061137d565b604080516080810182528581526020808201869052818301859052600160608301526001600160a01b0388166000908152808252929092208151805192939192610d4b9284920190610da3565b506020828101518051610d649260018501920190610da3565b5060408201518051610d80916002840191602090910190610da3565b50606091909101516003909101805460ff19169115159190911790555050505050565b828054600181600116156101000203166002900490600052602060002090601f016020900481019282601f10610de457805160ff1916838001178555610e11565b82800160010185558215610e11579182015b82811115610e11578251825591602001919060010190610df6565b50610e1d929150610e83565b5090565b60405180608001604052806060815260200160608152602001606081526020016000151581525090565b6040518060c0016040528060608152602001606081526020016060815260200160608152602001606081526020016000151581525090565b610e9d91905b80821115610e1d5760008155600101610e89565b90565b8035610eab81611470565b92915050565b600082601f830112610ec257600080fd5b8135610ed5610ed0826113d9565b6113b2565b91508082526020830160208301858383011115610ef157600080fd5b610efc83828461142a565b50505092915050565b600060208284031215610f1757600080fd5b6000610f238484610ea0565b949350505050565b60008060008060808587031215610f4157600080fd5b6000610f4d8787610ea0565b945050602085013567ffffffffffffffff811115610f6a57600080fd5b610f7687828801610eb1565b935050604085013567ffffffffffffffff811115610f9357600080fd5b610f9f87828801610eb1565b925050606085013567ffffffffffffffff811115610fbc57600080fd5b610fc887828801610eb1565b91505092959194509250565b60008060008060008060c08789031215610fed57600080fd5b6000610ff98989610ea0565b965050602087013567ffffffffffffffff81111561101657600080fd5b61102289828a01610eb1565b955050604087013567ffffffffffffffff81111561103f57600080fd5b61104b89828a01610eb1565b945050606087013567ffffffffffffffff81111561106857600080fd5b61107489828a01610eb1565b935050608087013567ffffffffffffffff81111561109157600080fd5b61109d89828a01610eb1565b92505060a087013567ffffffffffffffff8111156110ba57600080fd5b6110c689828a01610eb1565b9150509295509295509295565b6110dc81611419565b82525050565b6110dc81610e9d565b60006110f682611401565b6111008185611405565b9350611110818560208601611436565b61111981611466565b9093019392505050565b6000611130601883611405565b7f50726f66696c6520697320616c72656164792073617665640000000000000000815260200192915050565b6000611169601483611405565b7f5573657220416c72656164792045787369737473000000000000000000000000815260200192915050565b80516080808452600091908401906111ad82826110eb565b915050602083015184820360208601526111c782826110eb565b915050604083015184820360408601526111e182826110eb565b91505060608301516111f660608601826110d3565b509392505050565b805160c08084526000919084019061121682826110eb565b9150506020830151848203602086015261123082826110eb565b9150506040830151848203604086015261124a82826110eb565b9150506060830151848203606086015261126482826110eb565b9150506080830151848203608086015261127e82826110eb565b91505060a08301516111f660a08601826110d3565b60208101610eab82846110e2565b608080825281016112b281876110eb565b905081810360208301526112c681866110eb565b905081810360408301526112da81856110eb565b90506112e960608301846110d3565b95945050505050565b60c0808252810161130381896110eb565b9050818103602083015261131781886110eb565b9050818103604083015261132b81876110eb565b9050818103606083015261133f81866110eb565b9050818103608083015261135381856110eb565b905061136260a08301846110d3565b979650505050505050565b60208082528101610eab81611123565b60208082528101610eab8161115c565b6040808252810161139e8185611195565b90508181036020830152610f2381846111fe565b60405181810167ffffffffffffffff811182821017156113d157600080fd5b604052919050565b600067ffffffffffffffff8211156113f057600080fd5b506020601f91909101601f19160190565b5190565b90815260200190565b6000610eab8261141e565b151590565b6001600160a01b031690565b82818337506000910152565b60005b83811015611451578181015183820152602001611439565b83811115611460576000848401525b50505050565b601f01601f191690565b6114798161140e565b811461148457600080fd5b5056fea265627a7a72305820d22a28ef284928dd5877a4d3269dcedbe56bb6ff0c9f94f343d134b967a8d7b76c6578706572696d656e74616cf50037",
  "source": "pragma solidity >=0.4.21 <0.6.0;\npragma experimental ABIEncoderV2;\n\ncontract Signup {\n\n    struct User {\n        string username;\n        string  password;\n        string privateKey;\n        bool set;\n    }\n\n    struct userDetails{\n        \n        string name;\n        string DOB;\n        string gender;\n        string NIC;\n        string desigination;\n        bool set;\n    }\n\n    mapping(address => User) public users;\n    mapping(address => userDetails) public details;\n\n\n    function createUser(address _userAddress,string memory userName,string memory password,string memory _privateKey) public {\n        User storage user = users[_userAddress];\n        // Check that the user does not already exist:\n        require(!user.set,\"User Already Exsists\");\n        //Store the user\n        users[_userAddress] = User({\n            username: userName,\n            password: password,\n            privateKey: _privateKey,\n            set: true\n        });\n    }\n    \n    function setDetail(address _userAddress, string memory name,string memory dob,string memory gender,\n    string memory nic,string memory desigination ) public {\n        userDetails storage detail = details[_userAddress];\n        require(!detail.set,\"Profile is already saved\");\n        //set Details\n        details[_userAddress] = userDetails({\n            name:name,\n            DOB:dob,\n            gender:gender,\n            NIC:nic,\n            desigination:desigination,\n            set:true\n        });\n\n\n}\n\n    function getUser(address _userAddress) public view returns (int) {\n        User storage user = users[_userAddress];\n        if (!user.set)\n        {\n            return 0;\n        }\n\n        return 1;\n    }\n\n   function get(address _userAddress) public view returns (User memory s, userDetails memory t) {\n           s.username = users[_userAddress].username;\n           s.password = users[_userAddress].password;\n           s.privateKey = users[_userAddress].privateKey;\n\n           t.name = details[_userAddress].name;\n           t.DOB = details[_userAddress].DOB;\n           t.gender = details[_userAddress].gender;\n           t.NIC = details[_userAddress].NIC;\n           t.desigination = details[_userAddress].desigination;\n\n           }\n\n}\n\n",
  "sourcePath": "/home/trs-laptop-20/Project/Ethereum/IDM-Ethereum-Dapp/smartContracts/contracts/SignUp.sol",
  "compiler": {
    "name": "solc",
    "version": "0.5.8+commit.23d335f2.Emscripten.clang"
  },
  "schemaVersion": "3.0.11",
  "updatedAt": "2019-07-18T12:22:28.416Z",
  "devdoc": {
    "methods": {}
  },
  "userdoc": {
    "methods": {}
  }
}