{
  "contractName": "Signup",
  "abi": [
    {
      "constant": true,
      "inputs": [
        {
          "name": "",
          "type": "address"
        }
      ],
      "name": "details",
      "outputs": [
        {
          "name": "name",
          "type": "string"
        },
        {
          "name": "DOB",
          "type": "string"
        },
        {
          "name": "gender",
          "type": "string"
        },
        {
          "name": "NIC",
          "type": "string"
        },
        {
          "name": "desigination",
          "type": "string"
        },
        {
          "name": "set",
          "type": "bool"
        }
      ],
      "payable": false,
      "stateMutability": "view",
      "type": "function",
      "signature": "0x24a92f9f"
    },
    {
      "constant": true,
      "inputs": [
        {
          "name": "",
          "type": "address"
        }
      ],
      "name": "users",
      "outputs": [
        {
          "name": "username",
          "type": "string"
        },
        {
          "name": "password",
          "type": "string"
        },
        {
          "name": "privateKey",
          "type": "string"
        },
        {
          "name": "set",
          "type": "bool"
        }
      ],
      "payable": false,
      "stateMutability": "view",
      "type": "function",
      "signature": "0xa87430ba"
    },
    {
      "constant": false,
      "inputs": [
        {
          "name": "_userAddress",
          "type": "address"
        },
        {
          "name": "userName",
          "type": "string"
        },
        {
          "name": "password",
          "type": "string"
        },
        {
          "name": "_privateKey",
          "type": "string"
        }
      ],
      "name": "createUser",
      "outputs": [],
      "payable": false,
      "stateMutability": "nonpayable",
      "type": "function",
      "signature": "0xc610d2ce"
    },
    {
      "constant": false,
      "inputs": [
        {
          "name": "_userAddress",
          "type": "address"
        },
        {
          "name": "name",
          "type": "string"
        },
        {
          "name": "dob",
          "type": "string"
        },
        {
          "name": "gender",
          "type": "string"
        },
        {
          "name": "nic",
          "type": "string"
        },
        {
          "name": "desigination",
          "type": "string"
        }
      ],
      "name": "setUserDetail",
      "outputs": [],
      "payable": false,
      "stateMutability": "nonpayable",
      "type": "function",
      "signature": "0xe435ee8c"
    },
    {
      "constant": true,
      "inputs": [
        {
          "name": "_userAddress",
          "type": "address"
        }
      ],
      "name": "getUser",
      "outputs": [
        {
          "name": "",
          "type": "int256"
        }
      ],
      "payable": false,
      "stateMutability": "view",
      "type": "function",
      "signature": "0x6f77926b"
    },
    {
      "constant": true,
      "inputs": [
        {
          "name": "_userAddress",
          "type": "address"
        },
        {
          "name": "username",
          "type": "string"
        },
        {
          "name": "password",
          "type": "string"
        }
      ],
      "name": "login",
      "outputs": [
        {
          "name": "",
          "type": "address"
        }
      ],
      "payable": false,
      "stateMutability": "view",
      "type": "function",
      "signature": "0x79329937"
    },
    {
      "constant": true,
      "inputs": [
        {
          "name": "_userAddress",
          "type": "address"
        }
      ],
      "name": "getUserDetails",
      "outputs": [
        {
          "components": [
            {
              "name": "username",
              "type": "string"
            },
            {
              "name": "password",
              "type": "string"
            },
            {
              "name": "privateKey",
              "type": "string"
            },
            {
              "name": "set",
              "type": "bool"
            }
          ],
          "name": "s",
          "type": "tuple"
        },
        {
          "components": [
            {
              "name": "name",
              "type": "string"
            },
            {
              "name": "DOB",
              "type": "string"
            },
            {
              "name": "gender",
              "type": "string"
            },
            {
              "name": "NIC",
              "type": "string"
            },
            {
              "name": "desigination",
              "type": "string"
            },
            {
              "name": "set",
              "type": "bool"
            }
          ],
          "name": "t",
          "type": "tuple"
        }
      ],
      "payable": false,
      "stateMutability": "view",
      "type": "function",
      "signature": "0xcc3d967b"
    }
  ],
  "bytecode": "0x608060405234801561001057600080fd5b50611816806100206000396000f3fe6080604052600436106100825763ffffffff7c010000000000000000000000000000000000000000000000000000000060003504166324a92f9f81146100875780636f77926b146100c257806379329937146100ef578063a87430ba1461011c578063c610d2ce1461014c578063cc3d967b1461016e578063e435ee8c1461019c575b600080fd5b34801561009357600080fd5b506100a76100a23660046111f5565b6101bc565b6040516100b996959493929190611667565b60405180910390f35b3480156100ce57600080fd5b506100e26100dd3660046111f5565b6104b1565b6040516100b99190611608565b3480156100fb57600080fd5b5061010f61010a36600461121b565b6104ec565b6040516100b991906115f4565b34801561012857600080fd5b5061013c6101373660046111f5565b610714565b6040516100b99493929190611616565b34801561015857600080fd5b5061016c610167366004611298565b6108eb565b005b34801561017a57600080fd5b5061018e6101893660046111f5565b6109f0565b6040516100b9929190611702565b3480156101a857600080fd5b5061016c6101b7366004611341565b610f50565b60016020818152600092835260409283902080548451600294821615610100026000190190911693909304601f810183900483028401830190945283835292839183018282801561024e5780601f106102235761010080835404028352916020019161024e565b820191906000526020600020905b81548152906001019060200180831161023157829003601f168201915b505050505090806001018054600181600116156101000203166002900480601f0160208091040260200160405190810160405280929190818152602001828054600181600116156101000203166002900480156102ec5780601f106102c1576101008083540402835291602001916102ec565b820191906000526020600020905b8154815290600101906020018083116102cf57829003601f168201915b50505060028085018054604080516020601f600019610100600187161502019094169590950492830185900485028101850190915281815295969594509092509083018282801561037e5780601f106103535761010080835404028352916020019161037e565b820191906000526020600020905b81548152906001019060200180831161036157829003601f168201915b5050505060038301805460408051602060026001851615610100026000190190941693909304601f810184900484028201840190925281815294959493509083018282801561040e5780601f106103e35761010080835404028352916020019161040e565b820191906000526020600020905b8154815290600101906020018083116103f157829003601f168201915b5050505060048301805460408051602060026001851615610100026000190190941693909304601f810184900484028201840190925281815294959493509083018282801561049e5780601f106104735761010080835404028352916020019161049e565b820191906000526020600020905b81548152906001019060200180831161048157829003601f168201915b5050506005909301549192505060ff1686565b600160a060020a0381166000908152602081905260408120600381015460ff1615156104e15760009150506104e7565b60019150505b919050565b600160a060020a0383166000908152602081815260408083209051815491920190819083906002600019610100600184161502019091160480156105675780601f10610545576101008083540402835291820191610567565b820191906000526020600020905b815481529060010190602001808311610553575b505091505060405160208183030381529060405280519060200120836040516020018082805190602001908083835b602083106105b55780518252601f199092019160209182019101610596565b6001836020036101000a03801982511681845116808217855250505050505090500191505060405160208183030381529060405280519060200120141561070d5760008085600160a060020a0316600160a060020a03168152602001908152602001600020600101604051602001808280546001816001161561010002031660029004801561067b5780601f1061065957610100808354040283529182019161067b565b820191906000526020600020905b815481529060010190602001808311610667575b505091505060405160208183030381529060405280519060200120826040516020018082805190602001908083835b602083106106c95780518252601f1990920191602091820191016106aa565b6001836020036101000a03801982511681845116808217855250505050505090500191505060405160208183030381529060405280519060200120141561070d5750825b9392505050565b6000602081815291815260409081902080548251601f6002600019610100600186161502019093169290920491820185900485028101850190935280835290928391908301828280156107a85780601f1061077d576101008083540402835291602001916107a8565b820191906000526020600020905b81548152906001019060200180831161078b57829003601f168201915b505050505090806001018054600181600116156101000203166002900480601f0160208091040260200160405190810160405280929190818152602001828054600181600116156101000203166002900480156108465780601f1061081b57610100808354040283529160200191610846565b820191906000526020600020905b81548152906001019060200180831161082957829003601f168201915b50505060028085018054604080516020601f60001961010060018716150201909416959095049283018590048502810185019091528181529596959450909250908301828280156108d85780601f106108ad576101008083540402835291602001916108d8565b820191906000526020600020905b8154815290600101906020018083116108bb57829003601f168201915b5050506003909301549192505060ff1684565b600160a060020a0384166000908152602081905260409020600381015460ff161561094b576040517f08c379a0000000000000000000000000000000000000000000000000000000008152600401610942906116f2565b60405180910390fd5b60408051608081018252858152602080820186905281830185905260016060830152600160a060020a03881660009081528082529290922081518051929391926109989284920190611096565b5060208281015180516109b19260018501920190611096565b50604082015180516109cd916002840191602090910190611096565b50606091909101516003909101805460ff19169115159190911790555050505050565b6109f8611114565b610a0061113f565b600160a060020a0383166000908152602081815260409182902080548351601f600260001961010060018616150201909316929092049182018490048402810184019094528084529091830182828015610a9b5780601f10610a7057610100808354040283529160200191610a9b565b820191906000526020600020905b815481529060010190602001808311610a7e57829003601f168201915b5050509184525050600160a060020a03831660009081526020818152604091829020600190810180548451600293821615610100026000190190911692909204601f810184900484028301840190945283825290929091830182828015610b435780601f10610b1857610100808354040283529160200191610b43565b820191906000526020600020905b815481529060010190602001808311610b2657829003601f168201915b5050505050602083810191909152600160a060020a03841660009081528082526040908190206002908101805483516001821615610100026000190190911692909204601f81018590048502830185019093528282529092909190830182828015610bef5780601f10610bc457610100808354040283529160200191610bef565b820191906000526020600020905b815481529060010190602001808311610bd257829003601f168201915b5050505050604083810191909152600160a060020a0384166000908152600160208181529183902080548451600293821615610100026000190190911692909204601f810184900484028301840190945283825290929091830182828015610c985780601f10610c6d57610100808354040283529160200191610c98565b820191906000526020600020905b815481529060010190602001808311610c7b57829003601f168201915b5050509183525050600160a060020a038316600090815260016020818152604092839020820180548451600294821615610100026000190190911693909304601f8101839004830284018301909452838352919290830182828015610d3e5780601f10610d1357610100808354040283529160200191610d3e565b820191906000526020600020905b815481529060010190602001808311610d2157829003601f168201915b5050505050602082810191909152600160a060020a038416600090815260018083526040918290206002908101805484519381161561010002600019011691909104601f81018590048502830185019093528282529092909190830182828015610de95780601f10610dbe57610100808354040283529160200191610de9565b820191906000526020600020905b815481529060010190602001808311610dcc57829003601f168201915b5050505050604082810191909152600160a060020a0384166000908152600160208181529183902060030180548451600293821615610100026000190190911692909204601f810184900484028301840190945283825290929091830182828015610e955780601f10610e6a57610100808354040283529160200191610e95565b820191906000526020600020905b815481529060010190602001808311610e7857829003601f168201915b50505050506060820152600160a060020a03831660009081526001602081815260409283902060040180548451600294821615610100026000190190911693909304601f8101839004830284018301909452838352919290830182828015610f3e5780601f10610f1357610100808354040283529160200191610f3e565b820191906000526020600020905b815481529060010190602001808311610f2157829003601f168201915b50505050508160800181905250915091565b600160a060020a0386166000908152600160205260409020600581015460ff1615610fa7576040517f08c379a0000000000000000000000000000000000000000000000000000000008152600401610942906116e2565b6040805160c08101825287815260208082018890528183018790526060820186905260808201859052600160a08301819052600160a060020a038b1660009081529082529290922081518051929391926110049284920190611096565b50602082810151805161101d9260018501920190611096565b5060408201518051611039916002840191602090910190611096565b5060608201518051611055916003840191602090910190611096565b5060808201518051611071916004840191602090910190611096565b5060a091909101516005909101805460ff191691151591909117905550505050505050565b828054600181600116156101000203166002900490600052602060002090601f016020900481019282601f106110d757805160ff1916838001178555611104565b82800160010185558215611104579182015b828111156111045782518255916020019190600101906110e9565b50611110929150611178565b5090565b6080604051908101604052806060815260200160608152602001606081526020016000151581525090565b60c06040519081016040528060608152602001606081526020016060815260200160608152602001606081526020016000151581525090565b61119291905b80821115611110576000815560010161117e565b90565b600061070d823561177a565b6000601f820183136111b257600080fd5b81356111c56111c08261174e565b611727565b915080825260208301602083018583830111156111e157600080fd5b6111ec838284611796565b50505092915050565b60006020828403121561120757600080fd5b60006112138484611195565b949350505050565b60008060006060848603121561123057600080fd5b600061123c8686611195565b935050602084013567ffffffffffffffff81111561125957600080fd5b611265868287016111a1565b925050604084013567ffffffffffffffff81111561128257600080fd5b61128e868287016111a1565b9150509250925092565b600080600080608085870312156112ae57600080fd5b60006112ba8787611195565b945050602085013567ffffffffffffffff8111156112d757600080fd5b6112e3878288016111a1565b935050604085013567ffffffffffffffff81111561130057600080fd5b61130c878288016111a1565b925050606085013567ffffffffffffffff81111561132957600080fd5b611335878288016111a1565b91505092959194509250565b60008060008060008060c0878903121561135a57600080fd5b60006113668989611195565b965050602087013567ffffffffffffffff81111561138357600080fd5b61138f89828a016111a1565b955050604087013567ffffffffffffffff8111156113ac57600080fd5b6113b889828a016111a1565b945050606087013567ffffffffffffffff8111156113d557600080fd5b6113e189828a016111a1565b935050608087013567ffffffffffffffff8111156113fe57600080fd5b61140a89828a016111a1565b92505060a087013567ffffffffffffffff81111561142757600080fd5b61143389828a016111a1565b9150509295509295509295565b6114498161177a565b82525050565b61144981611785565b61144981611192565b600061146c82611776565b8084526114808160208601602086016117a2565b611489816117d2565b9093016020019392505050565b601881527f50726f66696c6520697320616c72656164792073617665640000000000000000602082015260400190565b601481527f5573657220416c72656164792045787369737473000000000000000000000000602082015260400190565b805160808084526000919084019061150e8282611461565b915050602083015184820360208601526115288282611461565b915050604083015184820360408601526115428282611461565b9150506060830151611557606086018261144f565b509392505050565b805160c0808452600091908401906115778282611461565b915050602083015184820360208601526115918282611461565b915050604083015184820360408601526115ab8282611461565b915050606083015184820360608601526115c58282611461565b915050608083015184820360808601526115df8282611461565b91505060a083015161155760a086018261144f565b602081016116028284611440565b92915050565b602081016116028284611458565b608080825281016116278187611461565b9050818103602083015261163b8186611461565b9050818103604083015261164f8185611461565b905061165e606083018461144f565b95945050505050565b60c080825281016116788189611461565b9050818103602083015261168c8188611461565b905081810360408301526116a08187611461565b905081810360608301526116b48186611461565b905081810360808301526116c88185611461565b90506116d760a083018461144f565b979650505050505050565b6020808252810161160281611496565b60208082528101611602816114c6565b6040808252810161171381856114f6565b90508181036020830152611213818461155f565b60405181810167ffffffffffffffff8111828210171561174657600080fd5b604052919050565b600067ffffffffffffffff82111561176557600080fd5b506020601f91909101601f19160190565b5190565b60006116028261178a565b151590565b600160a060020a031690565b82818337506000910152565b60005b838110156117bd5781810151838201526020016117a5565b838111156117cc576000848401525b50505050565b601f01601f19169056fea265627a7a72305820c14801dddf07bc62660b832b52bbe321b5d5eeb41b62525be8b948f94b2b467a6c6578706572696d656e74616cf50037",
  "source": "pragma solidity >=0.4.21 <0.6.0;\npragma experimental ABIEncoderV2; \ncontract Signup {\n\n    struct User {\n        string username;\n        string  password;\n        string privateKey;\n        bool set;\n    }\n\n    struct userDetails{\n        \n        string name;\n        string DOB;\n        string gender;\n        string NIC;\n        string desigination;\n        bool set;\n    }\n\n    mapping(address => User) public users;\n    mapping(address => userDetails) public details;\n\n\n    function createUser(address _userAddress,string memory userName,string memory password,string memory _privateKey) public {\n        User storage user = users[_userAddress];\n        // Check that the user does not already exist:\n        require(!user.set,\"User Already Exsists\");\n        //Store the user\n        users[_userAddress] = User({\n            username: userName,\n            password: password,\n            privateKey: _privateKey,\n            set: true\n        });\n    }\n    function setUserDetail(address _userAddress, string memory name,string memory dob,string memory gender,\n    string memory nic,string memory desigination ) public {\n        userDetails storage detail = details[_userAddress];\n        require(!detail.set,\"Profile is already saved\");\n        //set Details\n        details[_userAddress] = userDetails({\n            name:name,\n            DOB:dob,\n            gender:gender,\n            NIC:nic,\n            desigination:desigination,\n            set:true\n        });\n}\n\n    function getUser(address _userAddress) public view returns (int) {\n        User storage user = users[_userAddress];\n        if (!user.set)\n        {\n            return 0;\n        }\n\n        return 1;\n    }\n    function login(address _userAddress, string memory username, string memory password) public view returns (address){\n       if (keccak256(abi.encodePacked((username))) == keccak256(abi.encodePacked((users[_userAddress].username)))){\n           if( keccak256(abi.encodePacked((password))) == keccak256(abi.encodePacked((users[_userAddress].password)))){\n           return _userAddress;\n           }\n       }\n    }\n\n   function getUserDetails(address _userAddress) public view returns (User memory s, userDetails memory t) {\n           s.username = users[_userAddress].username;\n           s.password = users[_userAddress].password;\n           s.privateKey = users[_userAddress].privateKey;\n\n           t.name = details[_userAddress].name;\n           t.DOB = details[_userAddress].DOB;\n           t.gender = details[_userAddress].gender;\n           t.NIC = details[_userAddress].NIC;\n           t.desigination = details[_userAddress].desigination;\n\n           }\n}\n\n",
  "sourcePath": "/home/danyal/Desktop/officeProjects/IDM-Ethereum-Dapp/smartContracts/contracts/SignUp.sol",
  "compiler": {
    "name": "solc",
    "version": "0.5.0+commit.1d4f565a.Emscripten.clang"
  },
  "schemaVersion": "3.0.2",
  "updatedAt": "2019-07-23T10:08:08.234Z",
  "devdoc": {
    "methods": {}
  },
  "userdoc": {
    "methods": {}
  }
}